:020000040800F2
:10000000984100207D020008850200088702000850
:10001000890200088B0200088D0200080000000021
:100020000000000000000000000000008F02000837
:1000300091020008000000009302000881210008DE
:10004000970200089702000897020008970200082C
:100050009702000897020008191B00089702000881
:10006000970200089702000897020008970200080C
:1000700097020008970200089702000897020008FC
:1000800097020008970200089702000897020008EC
:1000900097020008970200089702000897020008DC
:1000A00097020008970200089702000897020008CC
:1000B00097020008970200089702000897020008BC
:1000C00097020008970200089702000897020008AC
:1000D00097020008B125000897020008ED250008E6
:1000E00097020008970200089702000800F002F843
:1000F00000F0B4F80AA090E8000C82448344AAF10E
:100100000107DA4501D100F0A9F8AFF2090EBAE80B
:100110000F0013F0010F18BFFB1A43F0010318473B
:10012000545300007453000010F8013B0A4413F0CC
:10013000030408BF10F8014B1D1108BF10F8015B44
:10014000641E05D010F8016B641E01F8016BF9D133
:10015000002D15D010F8014B03F00C030C2BA1EB74
:1001600004040ABF10F8013BA4EB8314A4EB03249E
:1001700005F1010314F8016B5B1E01F8016BF9D561
:10018000914238BF10F8013BD1D3704700230024BF
:1001900000250026103A28BF78C1FBD8520728BF97
:1001A00030C148BF0B6070476E2900F03B81702959
:1001B00000F07D82662905F07780652905F074805E
:1001C000672905F07180612905F0708003681B0ABA
:1001D00028BF41F08001692900F0E880642900F01F
:1001E000E580752900F0E2806F2900F00B82782904
:1001F00000F04982E92900F0A581E42900F0A281FC
:10020000F52900F09F81EF2900F00882F82900F01D
:1002100048820368DB0928BF41F08001632900F0B0
:100220004987732900F04E87E32900F05987F329A5
:1002300000F05E87002070471FB500F0ABFF0400A0
:100240000020002105F01AF8401C60600020002109
:1002500004F0FEFFE0601FBD10B510BD00F06CFFA4
:100260001146FFF7E9FF02F0DDFD01F045F803B4A8
:10027000FFF7F2FF03BC01F08DF80000094880474A
:1002800009480047FEE7FEE7FEE7FEE7FEE7FEE778
:10029000FEE7FEE7FEE7FEE704480549054A064B90
:1002A0007047000091210008ED000008983B0020F5
:1002B00098410020983D0020983D00201CB50C4638
:1002C000064B7B4469460090204600F0C4F8044683
:1002D0000020694600F0D2F820461CBDB70100009E
:1002E00070477047704770B5044685690068C1065D
:1002F00001D5302600E02026C00707D070BDD4E924
:10030000012130469047206A401C20626D1EF6D5C0
:1003100070BD70B5044685690078C00707D170BD0F
:10032000D4E9012120209047206A401C20626D1EE4
:10033000F6D570BD09684A0501D540B27047C905B8
:10034000FCD500B2704709684A0501D5C0B27047B4
:10035000C905FCD580B2704770B50C460546012A28
:1003600005D02878800600D5EA69002302E0012341
:1003700005E05B1C934202D2E05C0028F9D1A86939
:10038000E618C01AA861286A184428622846FFF7B0
:10039000AAFF04E0D5E9012114F8010B9047B4420B
:1003A000F8D32846FFF7B5FF70BD00002DE9F041F6
:1003B0000646002410687529314616A510D0FFF7AF
:1003C000B9FF002802DA404213A507E031688A0726
:1003D00001D512A502E0490704D511A5012401E0C9
:1003E000FFF7B1FF00210A2206F1240709E0B0FB64
:1003F000F2FCB0FBF2F302FB1C00303078541846DC
:10040000491C0028F3D123462A463046BDE8F04176
:1004100000F061BA000000002D0000002B00000079
:100420002000000011680268006A530501D50870B9
:100430000AE0D30501D5088006E0130603D5C217EC
:10044000C1E9000200E008600120704701694A1C10
:1004500002610878704700B58FB0CDE90131002105
:10046000059105497944CDE903101146684600F02D
:1004700029F90FB000BD0000E5FFFFFF0A6802F890
:10048000010B0A60704700002DE9FF5F15468A46A0
:100490000446DFF8AC80F8440027D8E900103E4657
:1004A000CDE9001010E03AF816106A4602A800F0F4
:1004B00023FE411C07D02178890603D5E26939184B
:1004C00091420DD80744761C2078800602D5E06959
:1004D000B84205DDAE42E6DB3AF816000028E2D16C
:1004E000A069C01BA0612046FFF7FDFED8E90010FF
:1004F000CDE90010002017E03AF818106A4602A86B
:1005000000F0FAFDB0F1FF3F81460BD000250DF160
:10051000080B05E0D4E901211BF8050090476D1C8C
:100520004D45F7D308F10100B0428046E4DB206A74
:10053000384420622046FFF7ECFEBDE8FF9F000034
:100540005A4E00002DE9F0418046D21D22F00702EC
:100550000025D2E90002F52915A614D0011E72F17A
:10056000000106DA0023D0EB030063EB020211A6C0
:1005700008E0D8F800108B0701D50FA602E0490764
:1005800001D50EA601251146002408F1240704E038
:1005900000F05CF930323A55641C50EA0102F7D1A0
:1005A0002B46324621464046BDE8F04100F093B963
:1005B000000000002D0000002B00000020000000C3
:1005C00030B4002100F1240408E002F00705D2084D
:1005D000303542EA4372DB086554491C52EA030590
:1005E000F3D10468002310A2250708D504F02004E5
:1005F0000C4304D0C46901230CA2641EC46130BC46
:1006000000F069B910B5044621461068FFF79BFE5B
:1006100002462046BDE810400023D1E7D21D22F05B
:100620000701D1E90023CBE7000000003000000003
:10063000F0B40D460188090502D5214C7C4402E046
:100640001F4C7C440E34002100F1240608E002F027
:100650000F071209E75D42EA03721B097754491C30
:1006600052EA0307F3D102780023120704D5702D54
:1006700006D009B1022311342246F0BC00F02BB998
:1006800001231034F8E770B504460D462146106882
:10069000FFF759FE024629462046BDE87040002378
:1006A000C6E7D21D22F00703D3E90023C0E70368A1
:1006B000126843F0200303600823C3610023B7E7F7
:1006C000BC4C00002DE9F05F894604464FF0000A5B
:1006D000DFF874B1FB44C0F820A02046E1688847E9
:1006E000002874D0252806D0D4E901219047206A3B
:1006F000401C2062F1E700265F462046E1688847FB
:100700002028054607DB312D05D2781910F8200C7A
:1007100008B10643F1E7B00701D526F00406C4F896
:100720001CA00027C4F818A02A2D09D0284602F0E2
:100730007CF838B304EB8708303DC8F8185019E04E
:1007400059F8041B204604EB87029161E168884751
:10075000012F054618D1E069002820DA26F020068E
:100760001DE0D8F8180000EB800005EB40003038A1
:10077000C8F818002046E1688847054602F055F899
:100780000028EED1012F0AD02E2D08D12046E16895
:1007900088477F1C0546022F46F02006C4DBA0696F
:1007A000002803DA404246F00106A061F00701D0BC
:1007B00026F010066C2D0BD0682D09D04C2D39D0A9
:1007C0006A2D35D0742D35D07A2D33D016E038E02F
:1007D000E1682F4620468847B842054609D16C2F6C
:1007E00026D04FF48060E1680643204688470546DE
:1007F00004E06C2F1AD04FF4807006430DB3A5F1BE
:100800004100192802D8203546F400664A46294698
:10081000204626604E46FFF7C7FC80B101280BD06A
:10082000F61D26F0070000F1080956E74020E4E72E
:100830008020D8E70020D6E706F104094DE72846D6
:1008400052E7206ABDE8F09F4C4C000030B5B0F193
:100850000A024FEA900E71F100034EEA817EB0EB7E
:100860000E0061EB91014FEA101E4EEA017E10EB83
:100870000E0041EB11114FEA102E4EEA016E10EB03
:100880000E0041EB11214FEA104E4EEA014E10EBE3
:100890000E0041EB1141401841F100014FEAD00038
:1008A00040EA41704FEAD10110EB80054FEA810424
:1008B00044EA907444EB01046D1944EB0404521BA8
:1008C000A3414FF0000348BF0A3200D530BD401CA1
:1008D00041F1000130BD2DE9F0470D4699469246A1
:1008E000044600F124080168880604D5E06921F077
:1008F0001001216000E00120A84201DD471B00E05B
:100900000027A1697A1902EB0900081AA061207872
:10091000C00602D42046FFF7E6FC002608E0D4E932
:1009200001211AF806009047206A401C761C2062BC
:100930004E45F4DB2078C0060AD52046FFF7D3FCED
:1009400006E0D4E9012130209047206A401C206253
:10095000381EA7F10107F4DC07E0D4E9012118F8FB
:1009600005009047206A401C2062281EA5F1010561
:10097000F3DC2046FFF7CDFC2078000602D50220EC
:10098000BDE8F0870120FBE770472DE9FF4F0C46DB
:100990001E464FF0FF378BB0D2E90001DDF86080D2
:1009A0000A908A46C1F30A5505B93D46002108461A
:1009B0004FF00000BAF1000F00F4400005DA00EB40
:1009C00080004FF4400101EA50004FEA9059B9F11C
:1009D000010F00DDB9460A9850EA4A000ED044F6ED
:1009E0001050A5F2FF3545432F14B8F1000F1ED06B
:1009F0007542291E1EDDC9F100021CE0B8F1010F8D
:100A00004FF0000001D0302103E0F24305E0215413
:100A1000401CB042FBDB30460022002121540B99E0
:100A2000C1F80880C1E900200FB0BDE8F08FBD1B00
:100A30006D1CDEE74A4600DA694206A800F0EEFBCC
:100A400006AB93E8070003AB83E8070050460A991A
:100A500000F0A7FC8DE80700A0F500501F380090BB
:100A60000398002D09DD42F21F014A46084403A9FC
:100A70000390684600F006FF08E0A0F500504A46E3
:100A80001F3803A90390684600F010FF8DE80700A7
:100A90000004000C03D04FF0FF30410800E0104686
:100AA000B8F1000F03D00022009215461EE0751E1B
:100AB00005D4FFF7CBFE303262556D1EF9D5B34633
:100AC0000122084302D000227F1C04E02078302855
:100AD00001D100227F1E002A099786D01DE0112D2A
:100AE00007DAFFF7B3FE303262556D1C50EA01029F
:100AF000F5D1084302D00098C8B10EE00021681E6D
:100B000005E0235C625C63542254401E491C814210
:100B1000F7DBAB46A81B401E0990002004F80B0031
:100B20000B98099AC0F80880C0E9002B7CE71126D1
:100B30004FF0000859E72DE9F04F88460446D21DD2
:100B400022F0070191B0D1E90001CDE90A0101F0DD
:100B500058FE02460B98C00F01D02D2007E02068F8
:100B6000810701D52B2002E0202101EAC000032AE1
:100B7000099001D0072A05DB03464146204600F0D4
:100B80000DFB0BE12078800601D5E06900E006202E
:100B9000B8F1650F814606D0B8F1660F18D0B8F1EC
:100BA000670F70D131E00020B9F1110F009001DB27
:100BB000112301E009F101030AAA01A90CA8FFF71A
:100BC000E4FEDDE90C70002609F10105834647E0EB
:100BD00001204B4600904FF000470AAA01A90CA83B
:100BE000FFF7D3FEDDE90DB00C995D46002610B984
:100BF00009F101000D18B9EB050003D4C0F1FF366F
:100C000009F10105A5EB09002BE0B9F1010F01DAAB
:100C10004FF001090020B9F1110F0090484601DDA5
:100C2000112300E003460AAA01A90CA8FFF7ADFEB4
:100C3000DDE90C704D4600268346207800070AD473
:100C4000AB4500DA5D4601A8012D04DD411911F81C
:100C5000011C302907D04F4502DA17F1040F04DADE
:100C6000012082460FE06D1EEEE7002F02DCED1B37
:100C70003E4403E0781CA84200DD7D1CB81B00F157
:100C8000010A4FF000472078000703D4AA4501DB92
:100C90004FF0FF3A0021B7F1004F0DF143088DF8F6
:100CA000431024D002202B23002F01DA7F422D2372
:100CB0000A21021EA0F1010000DC5FB197FBF1FCEC
:100CC00097FBF1F201FB1C7C17460CF1300C08F885
:100CD00001CDEEE7A8F1010003702188090501D5D7
:100CE000452100E06521A0F1010800F8011C0998E8
:100CF0000FA9A1EB0807FF1D00B10120411901EB6D
:100D0000EA70A1693844081A401EA0612078C00624
:100D100002D42046FFF7E7FA099828B1D4E9012167
:100D20009047206A401C20622078C00622D52046C9
:100D3000FFF7D9FA1EE0002E04DBB34502DD01A85F
:100D4000805D00E03020D4E901219047206A401CFA
:100D50002062761CAAF101005FEA000A0AD100F0C5
:100D600019FAC0680168405CD4E901219047206A03
:100D7000401C2062281EA5F10105DCDC07E0D4E957
:100D8000012118F8010B9047206A401C2062381E90
:100D9000A7F10107F3DC2046FFF7BBFA032011B0EF
:100DA00043E600002DE9F04F04460D46D21D22F027
:100DB000070089B0D0E900974846394601F021FD87
:100DC0000246F80F01D02D2307E02068810701D5E6
:100DD0002B2302E0202101EAC0038DF820300BB163
:100DE000012000E00020032A824601D0072A04DB0C
:100DF0002946204600F0D2F93FE12078800601D450
:100E00000D2500E0E569C7F30A560D2D49DA0021EA
:100E10004FEA175B08464FF00000002F00F4400037
:100E200007DA00EB80004FF4400100EBD07001EADC
:100E300060008115012901DD4FF0FF3100224FEAEA
:100E4000850CBCF1180F06D31346ACF118004FF017
:100E50008052C24003E04FF4801323FA0CF30CF1EC
:100E60000C0CBCF1200F04D3ACF1200C09FA0CF0EF
:100E700001E007FA0CF000294FF0004801DD18B935
:100E80000FE00ED140450CD319EB02095F4121B9A7
:100E9000404502D19F4329EA0209BBEB175F00D00E
:100EA000761C2088000502D57B48784402E07A4809
:100EB0007844193808AA302302F80A30037C0AF172
:100EC0000101002E0AF1020A53546A4602DC4FF077
:100ED000300101E04FF031014FF001088DF80010B2
:100EE00002D0A6F2FF3603E059EA470100D06B4E6C
:100EF000002D02DC2178090704D54FF002082E21CD
:100F00008DF80110C44600210BE0C7F303433F01F5
:100F1000C35C491C6D1E02F80830052908F1010860
:100F200001DA002DF1DC00210CE000EB1973491C03
:100F30001B786D1E082902F808304FEA091908F1DC
:100F4000010801DA002DF0DC21688B0602D516E0DD
:100F5000A8F10108E04505DD02EB080313F8013CA8
:100F6000302BF5D0B8F1000F09DD02EB080313F8C0
:100F7000013C2E2B03D1090701D4A8F10108002D53
:100F800005DD3E2102F808106D1E08F10108407CC5
:100F9000002E02F8080008F1010804DA2D2076423C
:100FA00002F8080002E02B2002F808000A214FF4A2
:100FB0007A70864208F101080BDB96FBF0F33033C0
:100FC00002F8083096FBF0F308F1010800FB136605
:100FD00001E0642E0CDB642096FBF0F3303302F862
:100FE000083096FBF0F308F1010800FB136601E0FE
:100FF0000A2E06DB96FBF1F0303002F8080008F10B
:10100000010896FBF1F001FB1060303002F8080097
:10101000A16908F1010808EB050202EB0A00081AB1
:10102000A0612078C00602D42046FFF75CF9216A4F
:1010300008AE01EB0A00206204E0D4E9012116F8B1
:10104000010B9047BAF1010AF7D22078C00602D509
:101050002046FFF748F96E4609E016F8010B3E28D6
:101060000FD0D4E901219047206A401C2062B8F1DA
:101070000108F2D22046FFF74CF909B00320BDE881
:10108000F08F206A2844206203E0D4E90121302057
:1010900090476D1EEBD3F8E79A44000002FCFFFF77
:1010A00010B5436913B1AFF3008001E0FFF754F9C5
:1010B000012010BD127800F124010A7000224A704C
:1010C0000122EDE711684FF0FF32E9E710B54369FF
:1010D00013B1AFF3008001E0FFF7D6F9012010BD96
:1010E000128800F1240182840022C2840122EDE7EB
:1010F00011684FF0FF32E9E770B516460C46054619
:1011000000F040F8036893F80101012806D0FF2C95
:101110000FD8185D68B101202C7070BDD3F807019D
:101120003246214603F2071303442846BDE87040C7
:1011300018474FF0FF3070BD754600F0E7F8AE4637
:1011400005006946534620F00700854618B020B5D3
:10115000FFF7A2F8BDE820404FF000064FF000076F
:101160004FF000084FF0000B21F00701AC46ACE84F
:10117000C009ACE8C009ACE8C009ACE8C0098D46BC
:101180007047000010B500F005F8001D10BD00BF4D
:10119000ED40000000487047543B00202DE9F0412D
:1011A0001F46044603260168072A01F4006004DB99
:1011B00008B116A505E016A503E008B115A500E0E5
:1011C00015A521F010002060A069C01EA0610FB11C
:1011D000401EA0612046FFF786F84FB1D4E90121F7
:1011E00038469047206A401C2062C01C206206E0FE
:1011F000206AFAE7D4E9012115F8010B9047761E21
:10120000F8D22046FFF785F8BDE8F0814E414E0048
:101210006E616E00494E4600696E66002DE9F0472A
:10122000814616468AB0334878440DC88DE80D00D3
:1012300030487844801C03AC0DC884E80D0041F6AA
:101240009B300844372190FBF1F290FBF1F5A5F1BA
:10125000800501FB12041B3C02D56442012000E022
:101260000020DFF890A080460027FA44AAF1BE0AC9
:101270000DE0E00709D03246684607EB47010AEB6C
:10128000810100F013FB8DE8070064107F1C002C27
:10129000EFD1184F7F44AC3F18E0E80714D007EBBC
:1012A00004100DF1180A90E80E008AE80E00C068DC
:1012B000F04201D198190890324606A903A800F01F
:1012C000F5FA03AB83E807006D10641C002DE4D130
:1012D00032466946B8F1000F03A802D000F0D2FAF6
:1012E00001E000F0E3FAC9E90001C9F808200AB0FA
:1012F000BDE8F087AC41000010B50446AFF30080B4
:101300002046BDE81040FEF7B2BF0000004870471D
:10131000343B00204FF0013C50F8042B51F8043BC3
:101320009A4221D1A2EB0C03934313EACC1317D1B9
:1013300050F8042B51F8043B9A4215D1A2EB0C0350
:10134000934313EACC130BD150F8042B51F8043B10
:101350009A4209D1A2EB0C03934313EACC13DBD0DE
:101360004FF00000704700BFD01A01BAB1FA81F106
:1013700001F0180122FA01F0CB40C1F12001DBB2EB
:10138000C0B2C01A2CFA01F3D11A914311EAC31169
:10139000E6D1704701491820ABBEFEE726000200E7
:1013A00070475FEA400C08BF91F0000F4FEA8C23B2
:1013B0004FEAC12243EA51514FEA1C5018BF00F5D1
:1013C000F0404FEA300018BF41F000415FEA6C5C2A
:1013D00000F02980BCF1FF3F08BF40F0804070471B
:1013E000130C06BF12044FF0100C4FF0000C130E3C
:1013F00004BF12020CF1080C130F04BF12010CF110
:10140000040C930F04BF92000CF1020CD30F04BF25
:1014100052000CF1010C11464FF00002A0F11F0028
:10142000A0EB0C00704711F0004F08BF704731F07F
:1014300000413FF4D5AF0B0C06BF09044FF0100C70
:101440004FF0000C0B0E04BF09020CF1080C0B0F3F
:1014500004BF09010CF1040C8B0F04BF89000CF1CF
:10146000020CCB0F04BF49000CF1010CCCF120039E
:10147000A0EB0C0022FA03F302FA0CF241EA03019A
:1014800000F10100704720F07F4C80EA030023F058
:101490007F47ACEB070303F57C5300F0004003F1FA
:1014A000FF032DE980494FEA154B09B44FEA144375
:1014B00025EA0B4E24EA03480FF2042606EB132715
:1014C00049083E785FEA320203FB0667C7F500076A
:1014D00007FB06F64FEA54374FEAD64606F10206F6
:1014E00007FB066CCCF1005C4FEA1C472CEA074C6A
:1014F00007FB06F40CFB06F504EB15464FEA9616BF
:1015000034BF00204FF000404FEAD13706FB07FC04
:101510004FEA1C4C0CFB0BF7D21B03FB0CF761EBE7
:1015200007010CFB0EF7B0EB074072EB17420CFB08
:1015300008F734BFA2EB0742B2EB074261EB174159
:101540004FEA0C444FEA910706FB07FC4FEA1C4C9C
:101550000CFB0BF7B0EBC74072EB573203FB0CF7F9
:1015600034BFA2EBC742B2EBC74261EB57310CFB71
:101570000EF7B0EBC70072EB57720CFB08F734BFE5
:10158000A2EBC702B2EBC70261EB5771039F4FEAB0
:10159000816141EA921104EBCC044FEAD1374FEA62
:1015A000826206FB07FC42EA90124FEA80604FEA33
:1015B0001C4C0CFB0BF7D21B03FB0CF761EB070178
:1015C0000CFB0EF7B0EB074072EB17420CFB08F771
:1015D00034BFA2EB0742B2EB074261EB17414FEA7F
:1015E0008C554FEA910704EB9C2406FB07FC4FEA5D
:1015F0001C4C0CFB0BF7B0EBC74072EB573203FBF4
:101600000CF734BFA2EBC742B2EBC74261EB5731D4
:101610000CFB0EF7B0EBC70072EB57720CFB08F730
:1016200034BFA2EBC702B2EBC70261EB577115EBF7
:101630004C254FEA816141EA92114FEA82624FEAFA
:10164000D13742EA901206FB07FC44F100044FEA4E
:1016500080604FEA1C4C0CFB0BF7D21B03FB0CF712
:1016600061EB07010CFB0EF7B0EB074072EB174282
:101670000CFB08F734BFA2EB0742B2EB074261EB69
:10168000174115EB1C154FEA813141EA92414FEAAF
:10169000823242EA90424FEA80304FEA0C7644F1BF
:1016A000000448EA03434EEA0B484FF0000EB2EB49
:1016B000080C71EB030724BF624639464EEB0E0E51
:1016C0004FF0000B0018524149414BEB0B0BB2EBB2
:1016D000080C71EB03077BF1000B24BF624639460F
:1016E0004EEB0E0E4FF0000B0018524149414BEBF0
:1016F0000B0BB2EB080C71EB03077BF1000B24BF63
:10170000624639464EEB0E0E51EA020718BF46F00C
:10171000010616EB0E7655F1000254F1000103D5D7
:10172000BDE88901BDE80088BDE88901BDE8004841
:10173000B619524141EB0101A3F1010370478080CA
:101740007F7E7D7C7B7A797877767675747372711B
:1017500071706F6E6E6D6C6C6B6A6A6968686766D3
:1017600066656464636362616160605F5F5E5E5D65
:101770005D5C5C5B5B5A5A595958585757565655D9
:1017800055555454535352525251515050504F4F3B
:101790004F4E4E4D4D4D4C4C4C4B4B4B4A4A4A498B
:1017A00049494848484747474746464645454544CE
:1017B0004444444343434342424242414141002B5B
:1017C00026D4770021D01CB54FEA370703B44FF079
:1017D00010004FF010014FF000000FBCBDE81040AA
:1017E0000BF1010BBBF1010F08BF5FEA170722BF26
:1017F00012F1010211F101014FF0004143F1000328
:1018000000F0004043EA00007047F9D35708DAE7D8
:1018100046EA064613F1400F4FEA16461FDD13F164
:10182000200FDFBF16430A46002120335B42C8D099
:10183000C3F1200746EA064602FA07F74FEA1646C2
:1018400046EA0706C3F1200722FA03F201FA07F776
:1018500021FA03F14FF0000342EA0702B1E746EA3A
:10186000020646EA06464FEA164646EA0106BCBFAD
:1018700046EA0646360C4FF000034FF000024FF0E8
:1018800000019EE72DE9C048934630B491E8380046
:1018900007C831EA400C48BF34EA430C03D5FFF7D0
:1018A000F2FDFFF78CFFF0BCBDE800882DE9C048D1
:1018B000934630B491E8380007C810F0804F08BF55
:1018C00013F0804F03D100F005F8FFF778FFF0BC6C
:1018D000BDE8008820F07F4780EA030023F07F4CBA
:1018E00007EB0C03A3F57C5300F00040A3F1FE03CB
:1018F00092F0000F00F0B38095F0000F00F07780B9
:101900002DE901494FEA11404FEA144621EA004807
:1019100000FB06FC24EA064708FB06F607FB08F86E
:1019200000FB07F718EB06484CEB164C4FEA124B3E
:1019300018EB07484FEA15464CEB174022EA0B4ECE
:101940000BFB06FC25EA06470EFB06F607FB0EFE20
:101950000BFB07F71EEB064E4CEB164C4FF0000648
:101960001EEB074E4CEB174B18EB0B0840F1000039
:1019700018EB0E0B58EB000840F100008F1A4FF0E7
:1019800000013CBFC943661B14BFB5EB040C00212A
:101990003CBFC943F61B4FEA17444EEA8E0E27EAB6
:1019A00004454FEA1C4704FB07622CEA074C05FB81
:1019B00007F70CFB05F604FB0CFC16EB074642EBA5
:1019C000174216EB0C4642EB1C421BEB060658EB8B
:1019D0000202414146EA9E0601D5BDE80189B619D9
:1019E000524141EB0101A3F10103BDE801894FEA36
:1019F00014454FEA114724EA054621EA074C05FB46
:101A000007F406FB07F70CFB06F105FB0CFC11EBDA
:101A1000074144EB17444FEA124711EB0C4144EBEA
:101A20001C4422EA074C05FB07F206FB07F70CFBF8
:101A300006F605FB0CFC16EB074642EB174216EBCD
:101A40000C4642EB1C456A1854F1000148BF704730
:101A5000B619524141EB0101A3F10103704795F022
:101A6000000F37D04FEA11424FEA144721EA0246ED
:101A700024EA074C02FB07F106FB07F70CFB06F410
:101A800002FB0CFC14EB074441EB17414FEA1547EE
:101A900014EB0C4441EB1C4125EA074C02FB07F513
:101AA00006FB07F70CFB06F602FB0CFC16EB0746E1
:101AB00045EB174516EB0C4645EB1C42121951F14C
:101AC000000148BF7047B619524141EB0101A3F133
:101AD000010370474FEA14454FEA114724EA0546CF
:101AE00021EA074C05FB07F106FB07F70CFB06F2A2
:101AF0004FF0000605FB0CFC12EB074241EB1741CF
:101B000012EB0C4251EB1C4148BF7047921841EB5D
:101B10000101A3F10103704710B5012000F032F874
:101B2000E8B10F48007868B920200E4948611020BC
:101B3000486101200A49087010200A4908612020E4
:101B4000086109E006480078012805D11020054900
:101B50004861022002490870012000F005F810BD1C
:101B6000B9200020001001400149086070470000C2
:101B700014040140024909680143014A1160704799
:101B800010040140014600200022074B1B6803EAB5
:101B90000102054B14331B680B4013B10AB101203D
:101BA00000E00020704700000004014000212349AC
:101BB0008279002A3AD00A46126803689A430B4693
:101BC0001A600A1D126803689A430B1D1A60027995
:101BD00011440A6803681A430A60184A08321268F6
:101BE00003689A43154B08331A601A1D126803687C
:101BF0009A43124B0C331A604279102A0ED11A1FE5
:101C0000126803681A430D4B08331A601A1D1268D4
:101C100003681A43094B0C331A600DE007494279F7
:101C200011440A6803681A430A6005E00279114406
:101C30000A6803689A430A60704700000004014084
:101C400030B500228B071C0F0F2303FA04F20B4B55
:101C50008C1053F824309343084C8D1044F82530F1
:101C600023468C1053F824308C07240F00FA04F418
:101C70002343024C8D1044F8253030BD080001404C
:101C80002DE9F04102460025002600200023002413
:101C9000002791F803C00CF00F0591F803C00CF079
:101CA000100CBCF1000F03D091F802C04CEA0505FE
:101CB00091F800C0BCF1000F31D0146800202BE077
:101CC0004FF0010C0CFA00F3B1F800C00CEA030667
:101CD0009E4220D183004FF00F0C0CFA03F7BC4357
:101CE00005FA03FC4CEA040491F803C0BCF1280F88
:101CF00006D14FF0010C0CFA00FCC2F814C00AE047
:101D000091F803C0BCF1480F05D14FF0010C0CFA5B
:101D100000FCC2F810C0401C0828D1D31460B1F8F0
:101D200000C0BCF1FF0F34DD546800202EE000F14C
:101D3000080C4FF0010808FA0CF3B1F800C00CEAE7
:101D400003069E4221D183004FF00F0C0CFA03F7DB
:101D5000BC4305FA03FC4CEA040491F803C0BCF14F
:101D6000280F05D100F1080C08FA0CF8C2F814800D
:101D700091F803C0BCF1480F07D100F1080C4FF0F7
:101D8000010808FA0CF8C2F81080401C0828CED3CD
:101D90005460BDE8F0810000F0B50A46002300243D
:101DA0000021002500F00046B6F1004F02D11D4E83
:101DB000F16901E01B4E7168C0F3034583B200F482
:101DC0004016B6F5401F08D121F07061154E7668B7
:101DD00026F07066134F7E6012E000F48016B6F5B0
:101DE000801F06D1032606FA05F4A14341F0706175
:101DF00006E0460D360103FA06F6B14341F0706184
:101E000022B1460D360103FA06F6314300F00046D2
:101E1000B6F1004F02D1034EF16101E0014E716055
:101E2000F0BD0000000001400246002093680B4016
:101E30000BB1012000E00020704741617047016153
:101E400070470AB1016100E04161704770B500213F
:101E500000230F22C47804B3154C246804F4E06412
:101E6000C4F5E064210AC1F10403CA40447804FACD
:101E700003F184781440214309010E4C0678A155E2
:101E8000047804F01F050124AC4005786D11AD0005
:101E900005F1E025C5F8004109E0047804F01F05CC
:101EA0000124AC40044D0678761145F8264070BDFB
:101EB0000CED00E000E400E080E100E002490143B5
:101EC000024A1160704700000000FA050CED00E0C6
:101ED000024A0A400243024B1A60704780FFFF1F0C
:101EE00008ED00E029B1064AD2690243044BDA61E9
:101EF00004E0034AD2698243014BDA617047000073
:101F00000010024029B1064A92690243044B9A61CB
:101F100004E0034A92698243014B9A6170470000D2
:101F20000010024030B500210022002400232D4D76
:101F30006D6805F00C0121B1042905D0082923D1D1
:101F400005E0294D056022E0274D05601FE0254D85
:101F50006D6805F47012234D6D6805F48034022518
:101F600005EB92421CB9214D554305600BE01D4D18
:101F70006D6805F400351DB11C4D5543056002E048
:101F8000194D5543056002E0174D056000BF00BFC5
:101F9000144D6D6805F0F0010909154D6B5C05687D
:101FA000DD4045600F4D6D6805F4E061090A104D94
:101FB0006B5C4568DD4085600A4D6D6805F46051D5
:101FC000C90A0B4D6B5C4568DD40C560054D6D6809
:101FD00005F44041890B074D6B5CC568B5FBF3F513
:101FE000056130BD0010024000127A0000093D007A
:101FF000000000201000002021B1028842F40052AD
:10200000028004E002884DF6FF731A400280704798
:1020100021B1028842F04002028004E002884FF6BB
:10202000BF731A40028070470246002013890B409C
:102030000BB1012000E000207047014688897047FD
:102040008181704710B50022028802F441520B884A
:102050004C8823438C882343CC8823430C89234317
:102060004C8923438C892343CC8923431A43028020
:10207000838B4FF2FF74234083830B8A038210BD4E
:1020800021B1828842F00402828004E082884FF607
:10209000FB731A408280704710B500F001F810BD44
:1020A0000CB50020019000903348006840F4803067
:1020B0003149086000BF3048006800F400300090EB
:1020C0000198401C0190009818B90198B0F5A06FD4
:1020D000F1D12948006800F4003010B101200090CF
:1020E00001E0002000900098012843D123480068B7
:1020F00040F01000214908600846006820F0030005
:1021000008600846006840F0020008601A4840680D
:10211000194948600846406848600846406840F4ED
:10212000806048600846406820F47C10486008469B
:10213000406840F4E81048600846006840F080704D
:10214000086000BF0C48006800F000700028F9D05B
:102150000948406820F00300074948600846406885
:1021600040F00200486000BF0348406800F00C00E7
:102170000828F9D10CBD00000010024000200240E8
:1021800002480068401C0149086070472800002090
:1021900010B51348006840F0010011490860084676
:1021A0004068104908400E494860084600680E49DA
:1021B00008400B4908600846006820F48020086049
:1021C0000846406820F4FE0048604FF41F00886015
:1021D000FFF762FF4FF000600449086010BD000087
:1021E000001002400000FFF8FFFFF6FE08ED00E0DF
:1021F00021B1028842F08002028004E002884FF69A
:102200007F731A400280704721B1028842F00102B8
:10221000028004E002884FF6FE731A400280704785
:1022200031B1B0F8442042F40042A0F8442005E067
:10223000B0F84420C2F30E02A0F84420704700001A
:1022400070B5002400220023058C4FF6FE76354041
:102250000584028C8388048B4FF68F752C40B51E45
:102260002C400D882C43751E2A400D892A434D8829
:102270002A43144DA8420BD0134DA84208D0134D49
:10228000A84205D0124DA84202D0124DA84213D147
:102290004FF6F7752A404D892A434FF6FB752A40C1
:1022A0008D882A434FF6FF652B404FF6FF552B4094
:1022B0008D892B43CD892B4383800483CD888586EC
:1022C000028470BD002C01400034014000400140F8
:1022D00000440140004801400A460021018B4FF6AE
:1022E000F7731940114301837047000070B5002453
:1022F00000220023058C4FF6EF7635400584028CD2
:102300008388048B48F6FF752C404FF6FF452C4020
:102310000D884FF6FF7606EA05252C434FF6DF754C
:102320002A400D8906EA05152A434D8806EA051557
:102330002A43154DA84202D0144DA8421DD14FF694
:102340007F752A404D894FF6FF7606EA05152A4328
:102350004FF6BF752A408D8806EA05152A434FF6C9
:10236000FF352B404FF2FF752B408D8906EA85051E
:102370002B43CD8906EA85052B4383800483CD88D2
:102380000587028470BD0000002C0140003401402C
:102390000A460021018B4FF2FF7319404FF6FF737D
:1023A00003EA0223194301837047000070B500243B
:1023B00000220023058C4FF6FF6635400584028C11
:1023C0008388848B4FF68F752C404FF6FC752C401C
:1023D0000D882C434FF6FF552A400D894FF6FF76A6
:1023E00006EA05252A434D8806EA05252A43154DA8
:1023F000A84202D0144DA8421DD14FF2FF752A40C9
:102400004D894FF6FF7606EA05252A434FF6FF353C
:102410002A408D8806EA05252A434EF6FF752B4093
:102420004DF6FF752B408D8906EA05152B43CD89A6
:1024300006EA05152B4383808483CD888587028433
:1024400070BD0000002C0140003401400A4600210C
:10245000818B4FF6F7731940114381837047000059
:1024600070B5002200230024058C4EF6FF7635401F
:102470000584038C8488828B48F6FF752A404FF6CA
:10248000FF452A400D884FF6FF7606EA05252A43C8
:102490004DF6FF752B400D8906EA05352B434D8817
:1024A00006EA05352B430B4DA84202D00A4DA8423F
:1024B00008D14BF6FF752C408D894FF6FF7606EA62
:1024C00085152C4384808283CD88A0F840500384F6
:1024D00070BD0000002C0140003401400A4600217C
:1024E000818B4FF2FF7319404FF6FF7303EA02230B
:1024F00019438183704781867047018770478187C0
:102500007047A0F84010704781847047002202880D
:102510001D4B98420ED01D4B98420BD0B0F1804F0E
:1025200008D01B4B984205D01A4B984202D01A4B48
:10253000984204D14FF68F731A404B881A43174BB9
:10254000984207D0164B984204D04FF6FF431A40EA
:10255000CB881A4302808B8883850B8803850A4BBE
:1025600098420BD0094B984208D00E4B984205D0A8
:102570000D4B984202D00D4B984201D10B7A038645
:102580000123838270470000002C01400034014089
:102590000004004000080040000C00400010004013
:1025A0000014004000400140004401400048014048
:1025B00010B540F225510A4800F05EF878B109489C
:1025C000007838B1064800F013F9C4B20648016833
:1025D0002046884740F22551014800F025F810BDFB
:1025E00000380140680000206000002010B540F273
:1025F00025510A4800F040F878B10948407838B1D0
:10260000064800F0F5F8C4B20648416820468847FD
:1026100040F22551014800F007F810BD0048004085
:10262000680000206000002010B50022002340F662
:102630006A14A14200D100BF0A1201249440A3B23F
:10264000DC43048010BD21B1828942F400528281B2
:1026500004E082894DF6FF731A408281704702467A
:102660000020B1F5007F00D100BF13880B400BB1F3
:10267000012000E00020704770B5024600240023CE
:102680000025002040F66A16B14200D100BFC1F318
:10269000421501F01F03012606FA03F3012D02D1B2
:1026A0009689334006E0022D02D1168A334001E0BC
:1026B000968A33400C12012606FA04F41688344038
:1026C00013B10CB1012000E0002070BDF0B503464D
:1026D000002400260025002040F66A17B94200D1E8
:1026E00000BF1846C1F3421401F01F06012707FA84
:1026F00006F5012C01D10C3004E0022C01D1103080
:1027000000E014301AB107682F43076002E0076841
:10271000AF430760F0BD00002DE9F04786B00546E5
:102720000E460024A24600BFA1460027B08900B192
:1027300000BF2F462C8A4CF6FF700440F0880443FB
:102740002C82AC894EF6F3100440B08831890843DE
:10275000718908430443AC81AC8A4FF6FF400440C2
:10276000B0890443AC8201A8FFF7DCFB1F48874215
:1027700002D1DDF810A001E0DDF80CA0A88900F47A
:10278000004040B10AEBCA0000EB0A103168490072
:10279000B0FBF1F807E00AEBCA0000EB0A10316861
:1027A0008900B0FBF1F86420B8FBF0F004012009C7
:1027B000642101FB1089A88900F4004040B1322057
:1027C00000EBC900B0FBF1F000F00700044308E0A3
:1027D000322000EB09106421B0FBF1F000F00F0093
:1027E00004432C8106B0BDE8F087000000380140AA
:1027F00001468888C0F308007047C1F30802828050
:102800007047490050EAC12018BF04204A0D18BF84
:1028100040F0010040F2FF72B2EB515F08BF40F0A0
:102820000200012808BF0520704730380A2801D26D
:10283000012070470020704708B501211020FFF7E4
:1028400061FB03208DF8020048208DF803004FF44F
:102850006040ADF8000069461548FFF711FA002006
:1028600022E0144951F8201000EB8002124B43F88B
:102870002210124931F8101000EB800203EB8202A3
:102880009180012100EB800203EB82029171002113
:1028900000EB800203EB8202D17100EB800203EBBC
:1028A00082021172411CC8B20328DADB08BD0000A5
:1028B000001001403C000020EC310020B65200081E
:1028C00010B50446204601F027FA20B1002008493F
:1028D00041F8240006E0064850F82400401C044952
:1028E00041F82400024830F8240080B210BD0000F6
:1028F000283B002008B501211020FFF703FB03202F
:102900008DF8020010208DF803004001ADF80000A2
:1029100069460248FFF7B4F908BD00000010014005
:1029200010B54FF400710248FFF787FA10BD0000A0
:102930000010014010B54FF400710248FFF77FFA14
:1029400010BD0000001001401FB5044634B1012C39
:1029500004D0022C02D0002004B010BD204600F0AC
:102960008BF808B90020F7E701211D20FFF7CAFA0C
:1029700001213B48FFF710FA10208DF80F000320CB
:102980008DF80E004FF40040ADF80C0003A9354857
:10299000FFF776F94FF48050ADF80C0003A93148E9
:1029A000FFF76EF90220ADF80C0003A92E48FFF7DF
:1029B00067F92020ADF80C0003A92C48FFF760F957
:1029C0001020ADF80C0003A92848FFF759F94FF47F
:1029D0007F40ADF80C0004208DF80F0003A92248B9
:1029E000FFF74EF90120ADF80C0003A91E48FFF7D0
:1029F00047F94FF4C060FFF761FA06208DF8080030
:102A000000208DF8090001208DF80A008DF80B00D8
:102A100002A8FFF71BFA00210120FFF711F901209E
:102A2000009000208DF804000C208DF80500012096
:102A30008DF806006846FFF7B9F80120FFF79AF80D
:102A40004FF400400749143108601020074908611D
:102A50000020074908700748047001207CE7000047
:102A60000002300000080140000C0140001001404D
:102A7000B9200020B82000207CB5054601210420A3
:102A8000FFF740FA0320ADF804008DF8060014208B
:102A90008DF8070001A92348FFF7F2F80020009005
:102AA0008021122001F08AFA08B900207CBD0A2298
:102AB0000121684601F082F908B90020F6E79DF887
:102AC0000000772801D00020F0E70B2201216846A2
:102AD00001F074F908B90020E8E79DF8000021280A
:102AE00001D00020E2E700240DE00F4A02EB44028F
:102AF00051780D4A12F8140001F060FA08B900206C
:102B0000D4E7601C84B2094800788442EDDB012DD3
:102B100001D0022D03D14021122001F04FFA0120F3
:102B2000C4E7000000080140BB2000206521002010
:102B3000F8B55248007840B900BF0020FFF704FF05
:102B40000028FAD001204D4908704D48007802282D
:102B50007DD14FF4E24001F0FFFD002001F038FB91
:102B600000F0B8F84FF47A71B0FBF1F03C21B0FB03
:102B7000F1F201FB120500F0ADF84EF66021B0FB5A
:102B8000F1F633463FA200210846009501F022FDF0
:102B900001F0AEFE00BF4FF48050404908600220B3
:102BA0003F490860091F0860C0023C49091F0860CE
:102BB00002203B490860091F086000BF00F08AF846
:102BC00007462A2002F074F9002002F099F9062045
:102BD00002F096F9002002F093F97D2002F090F9BE
:102BE0002B2002F065F9002002F08AF9252002F07E
:102BF00087F9002002F084F97F2002F081F92C206F
:102C000002F056F9002531E000262BE000BF002439
:102C100002202349086022480C38006800F47F44F1
:102C20000220091F0860091D08601D480C38006853
:102C3000C0F3072004430220091F086000BFF821E9
:102C400001EAC401C4F3022241EA020000E013E0F9
:102C500002F056F904F0E00141EAE42002F050F9F4
:102C6000701C86B2782ED1DB681C85B25A2DCBDB66
:102C700000200349087000BFF8BD00006621002055
:102C8000B92000205B426F61726420546573742028
:102C9000253032643A253032645D0000140801406A
:102CA000140C014070B504460848007808B902F0D9
:102CB0004FF90748056806E005480068854202D0DC
:102CC00003480568641E002CF6D170BD2C0000205E
:102CD00028000020014800687047000028000020FC
:102CE00038B504460D46124850F834001149884260
:102CF00008D101210420FFF705F901210E48FFF753
:102D00004BF803E001210820FFF7FCF803208DF8C1
:102D100002008DF80350064800EBC4008088ADF82F
:102D20000000034951F834006946FEF7A9FF38BD99
:102D300098100020000801400004300010B504463F
:102D4000044A02EBC4029188024A52F83400FFF7A9
:102D50006BF810BD9810002070B504460D46054A6A
:102D600002EBC4029188034A52F834002A46FFF766
:102D700068F870BD9810002008B501213520FFF7D4
:102D8000C1F803208DF8020010208DF803004020C8
:102D9000ADF8000069461048FEF772FF4FF480500E
:102DA000ADF8000069460D48FEF76AFF0420ADF853
:102DB000000069460A48FEF763FF40210648FFF716
:102DC0003CF84FF480510548FFF737F804210448D8
:102DD000FFF733F808BD0000000801400010014073
:102DE0000014014010B50446044A32F81410044A95
:102DF00052F82400FFF721F810BD0000B05200087F
:102E00003000002010B50446044A32F81410044A79
:102E100052F82400FFF713F810BD0000B05200086C
:102E20003000002008B502F093F84FF6FF7300223F
:102E30004FF2BE71104601F069FBFFF7FDFCFFF792
:102E400059FDFFF799FF00F051FF002505E004212F
:102E50002846FFF745FF681CC5B2042DF7DB4FF489
:102E6000E131002002F01AF94FF4E131012002F0C3
:102E700015F96B49002002F0A7F96A49012002F018
:102E8000A3F940F2EE2242F210718F2001F0C8F84F
:102E900000226421472000F041F963A201210520AE
:102EA00001F098FB62A20221012001F093FB64A2D1
:102EB0000321062001F08EFB63A20421032001F010
:102EC00089FB64A20521042001F084FB63A2082190
:102ED000062001F07FFB64A20921084601F07AFB7D
:102EE00001F006FDFFF7F6FE044600BFFFF7F2FE15
:102EF000001BB0F57A7F04D20220FFF7E1FC012825
:102F0000F4D101F059F95AA20121052001F062FB28
:102F10005AA203210A2001F05DFB5AA205210920D3
:102F200001F058FB59A207210A2001F053FB01F0E0
:102F3000DFFCFFF7CFFE044600BFFFF7CBFE001B10
:102F4000B0F5FA6F04D20220FFF7BAFC0128F4D1E1
:102F500002F046F862E0FFF7BDFE4E49096888427C
:102F60005CD0FFF7B7FE4B490860084600681421A3
:102F7000B0FBF1F201FB120000284FD14FF4E24008
:102F800001F0EAFB002001F023F9424800684FF409
:102F90007A71B0FBF1F03C21B0FBF1F201FB1205BC
:102FA0003C4800684EF66021B0FBF1F633463AA289
:102FB00000210846009501F00DFB3D480078FF28F0
:102FC00006D14FF2BE7001F0C7FB00F0FBFA23E020
:102FD0004AF2212001F0C0FB012001F0F9F8354848
:102FE0003349097850F8313033A20121002001F033
:102FF000F1FA4FF2BE7001F0AFFB022503E0E8B238
:1030000001F0E6F86D1C0A2DF9DB2A49284A1278EE
:1030100001EBC2014868804701F06AFC9BE70000B1
:10302000ED4F000845500008484B55535400000030
:10303000526F626F74696373205465616D000000A4
:103040003230313700000000426F617264205465F5
:103050007374000050726F6772616D00577269740B
:1030600074656E206279000052797573756B650026
:10307000496E737472756374696F6E004E4558546F
:103080002D3E0000454E5445522D3E004241434BDB
:103090002D3E0000B43100205B426F617264205409
:1030A00065737420253032643A253032645D000047
:1030B000B0310020683100205B25735D0000000006
:1030C00070B504460D46164645B1114A32F8141043
:1030D000104A52F82400FEF7B2FE07E00C4A32F81C
:1030E00014100C4A52F82400FEF7A7FE1CB9314612
:1030F0000948FFF700FA012C03D131460648FFF7D3
:10310000FCF9022C03D131460348FFF7F8F970BDF2
:10311000E05200086C0000200004004070B588B048
:1031200006460C46154601210220FEF7DBFE012172
:103130001920FEF7E7FE01213748FEF72DFE10208B
:103140008DF81F0003208DF81E003820ADF81C00FC
:1031500007A93248FEF794FD18208DF81F000320C0
:103160008DF81E004FF4E070ADF81C0007A92C4844
:10317000FEF786FD01212B48FEF70EFE0020ADF87C
:103180001200ADF816008DF81800ADF81060ADF81B
:10319000144004A92448FFF7B9F90020ADF808004D
:1031A000ADF80A006020ADF800000020ADF80C007A
:1031B000ADF80E000120ADF802000420ADF80400C7
:1031C000ADF8065069461848FFF73AF8012116484D
:1031D000FFF782F869461448FFF788F80121124882
:1031E000FFF7D6F869461048FFF7E0F801210E48CE
:1031F000FFF72CF901210C48FEF7FAFF01210A48DC
:10320000FFF702F800210848FFF77EF90121064880
:10321000FFF706F808B070BD00043000000C014054
:1032200000100140000C1A000004004010B50220FC
:10323000FFF746FB012804D00120FFF741FB0128DE
:1032400007D11148007808B9012000E000200E499C
:10325000087000240EE00C4A1278C2EBC212131957
:10326000022202EB241104F00F0008A201F0B2F9CF
:10327000601CC4B2802CEEDB0020FFF721FB10B1F4
:10328000FF200349087010BDE931002025630000CC
:10329000B031002010B5124800684FF47A71B0FBCD
:1032A000F1F201FB1200B0F5FA7F07D80DA203215D
:1032B000084601F08FF9FFF73DFB06E00CA2032161
:1032C000084601F087F9FFF72BFB0020FFF7F8FA1B
:1032D00020B1FFF725FBFF200849087010BD000052
:1032E000B431002042555A5A45523A204F4E000000
:1032F00042555A5A45523A204F464600B0310020B6
:1033000010B501E0FFF714FC0020FFF7D9FA002800
:10331000F8D0FF20044908704FF2BE7001F01CFA8B
:1033200001F0BEF810BD0000B031002038B5022019
:10333000FFF7C6FA01280ED00220FFF7C1FA1428C1
:1033400014DD0220FFF7BCFA052190FBF1F201FB2E
:10335000120001280AD159490978481CC11700EB0D
:1033600091718910A0EB8101544A11700120FFF77F
:10337000A7FA012817D1524850490978405C401CEF
:10338000052190FBF1F201FB12004D494B4A1278E6
:1033900088540846494A1278805C4A4A115C47487A
:1033A0000078FFF79DFC002470E0474800684FF468
:1033B0009661B0FBF1F201FB12014FF4967060438D
:1033C000814207D14148005D08B9012000E000209A
:1033D0003E4908556000801CC1B2631C3CA200201D
:1033E00001F0F8F835480078A0420DD16000C01C0B
:1033F000C1B239A2032001F0EDF86000C01CC1B2D7
:1034000036A20F2001F0E6F82D48005D344A52F84C
:1034100020306000C01CC1B232A2042001F0DAF8F2
:103420004DF29A6001F098F92548005D032812DA00
:103430002046FFF783FC08B12BA000E02CA0054636
:103440001B2000906000801CC1B22B462AA20620DF
:1034500001F0C0F814E01D48015D2046FFF77CFC38
:103460001A2000901948005D08B11FA000E020A0BC
:1034700003466000801CC1B21FA2062001F0AAF81A
:103480004FF2BE7001F068F9601CC4B2042C8CDBF2
:103490000020FFF715FA78B1002408E00020084961
:1034A000085504212046FFF71BFC601CC4B2042C05
:1034B000F4DBFF201249087038BD0000DC31002029
:1034C000D4310020EE520008B4310020D831002061
:1034D0004750494F25643A003C0000003E00000080
:1034E000C031002025730000484947480000000013
:1034F000204C4F570000000025732563000000009A
:10350000B031002010B52648006840F6B831B0FB55
:10351000F1F201FB1200B0F57A7F03D800202149B7
:10352000087011E01E48006840F6B831B0FBF1F2B7
:1035300001FB1200B0F5FA6F03D801201949087099
:1035400002E002201749087000241AE015480078AC
:1035500084420AD12046FFF755FCE01CC1B2631C2F
:1035600011A2042001F036F809E02046FFF73AFCEA
:10357000E01CC1B2631C0FA2042001F02BF8601CF8
:10358000C4B2032CE2DB0020FFF79AF930B1054802
:103590000078FFF727FCFF200949087010BD0000E4
:1035A000B4310020B93100204C454425643A204F05
:1035B0004E0000004C454425643A204F464600002A
:1035C000B031002010B50020FFF77AF9012822D091
:1035D0000020FFF775F9142809DD0020FFF770F9C6
:1035E000052190FBF1F201FB1200012813D002200B
:1035F000FFF766F901280ED00220FFF761F91428C1
:1036000013DD0220FFF75CF9052190FBF1F201FBCD
:103610001200012809D120480078401C0921B0FB84
:10362000F1F201FB12001C490870002404E0611C47
:10363000C8B200F0CDFD641C092CF8DB002409E0C1
:10364000164850F83430601CC1B215A2002000F0BA
:10365000C1FF641C092CF3D34DF29A6001F07CF891
:103660000D490978491CC8B200F0B2FD0B480A4A5E
:10367000127850F8323008480078401CC1B208A2D5
:10368000002000F0A7FF0120FFF71AF918B1024847
:1036900000780449087010BDB8310020683100205E
:1036A00025730000B031002010B50220FFF708F9A3
:1036B00001280ED00220FFF703F9142813DD0220A1
:1036C000FFF7FEF8052190FBF1F201FB1200012843
:1036D00009D152480078401C032190FBF1F201FB14
:1036E00012004E4908700120FFF7EAF8012811D0B6
:1036F0000120FFF7E5F814284BDD494847490978D0
:1037000040566430002844D0454844490978405C1C
:1037100064283ED04248414909784056643028B96F
:10372000012040493D4A127888540AE03C483B4910
:103730000978405C642804D1FF203A49374A12785E
:103740008854374835490978415C3648334A1278FD
:10375000805C084440B23249304A127888540846A6
:103760002E4B1B78C056002804DD08462B4B1B78D7
:10377000C05604E02A48294B1B78C056404282B20A
:103780002748264B1B78C056C10F24480078FFF706
:1037900097FC25A20221002000F01CFF27A2032194
:1037A000002000F017FF00241CE0601DC1B2631C64
:1037B00026A2022000F00EFF18480078844203D1B0
:1037C0004DF29A6000F0C8FF15480357601DC1B262
:1037D00021A20A2000F0FEFE4FF2BE7000F0BCFFF6
:1037E000601CC4B2032CE0DB0020FFF769F898B13D
:1037F000FF201A49087000240CE0002008490855F1
:10380000012008490855002211462046FFF758FCC0
:10381000601CC4B2032CF0DB10BD0000E0310020BE
:10382000DD310020E13100204672657175656E63FF
:10383000793A2031306B487A0000000052616E679F
:10384000653A202D3130307E313030004D4F544FAD
:103850005225643A0000000025346400B031002095
:1038600038B50220FFF72CF801280ED00220FFF710
:1038700027F8142814DD0220FFF722F8052190FB19
:10388000F1F201FB120001280AD12A490978481CEB
:10389000C11700EB91718910A0EB8101254A1170CD
:1038A0000120FFF70DF8012813D123482149097899
:1038B000405C08B9012000E000201F491D4A127831
:1038C000885408461B4A1278815C1A48007800F038
:1038D000F1F9002424E01848005D08B117A000E0C9
:1038E00017A00090E01CC1B2631C16A2012000F0DA
:1038F00071FE10480078A04201D1012000E00020B4
:1039000080300D4A125D0AB1022200E000228318C5
:10391000E01CC1B20FA2002000F05CFE601CC4B22B
:10392000042CD8DB0020FEF7CBFF10B1FF200A49A2
:10393000087038BDBE310020BA3100204F4E000063
:103940004F464600504E45554D54494325643A2054
:103950002573000025630000B0310020F8B5022077
:10396000FEF7AEFF01280ED00220FEF7A9FF1428B3
:1039700011DD0220FEF7A4FF052190FBF1F201FB0F
:103980001200012807D14648007808B9012000E05C
:103990000020434908700120FEF792FF01280FD054
:1039A0000120FEF78DFF142839DD3E483C49097897
:1039B000405CA0B33B483A490978405C78282ED057
:1039C000384837490978405C28B901203649344ADB
:1039D000127888540AE0334831490978405C7828E5
:1039E00004D1FF2030492E4A127888542D482C49A2
:1039F0000978405C2C492A4A1278895C0844294994
:103A0000274A127888540846254A1278805C00EBD1
:103A1000800000F5E1712248007800F0EFFA23A25F
:103A20000221002000F0D6FD24A20321002000F096
:103A3000D1FD002429E0601DC1B2631C24A2012035
:103A400000F0C8FD16480078844203D14DF29A6018
:103A500000F082FE1348005D5A30642190FBF1F2C1
:103A600001FB12050F48005D5A3090FBF1F6601D16
:103A7000C1B233461AA20920009500F0ABFD4FF207
:103A8000BE7000F069FE601CC4B2022CD3DB0020C3
:103A9000FEF716FF10B1FF2013490870F8BD0000B3
:103AA000E6310020E4310020E731002046726571E4
:103AB00075656E63793A203530487A0052616E67D9
:103AC000653A20302E397E322E316D7300000000B1
:103AD000534552564F25643A20202020206D730014
:103AE00025642E2530326400B031002070B55C486A
:103AF00000684FF47A71B0FBF1F201FB120000286C
:103B000038D100BF06E00021564A1154564A1154DC
:103B1000411CC8B23328F6DB514800684FF47A7173
:103B2000B0FBF1F03C21B0FBF1F201FB12044C4878
:103B300000684EF66021B0FBF1F523462A464BA102
:103B4000002001F053FB464800684FF47A71B0FB47
:103B5000F1F03C21B0FBF1F201FB12044048006897
:103B60004EF66021B0FBF1F523462A4644A1012020
:103B700001F03CFB47A20221042000F02BFD394B51
:103B800047A20321002000F025FD364B113344A24B
:103B90000421002000F01EFD324B223340A20521FB
:103BA000002000F017FD3FA20621042000F012FDC6
:103BB0002D4B3BA20721002000F00CFD2A4B1133B6
:103BC00037A20821002000F005FD274B223334A244
:103BD0000921002000F0FEFC002407E04DF29A626B
:103BE0005F21204600F072FD601CC4B2802CF5DB22
:103BF00014240DE04DF29A622F21204600F066FD5C
:103C00004DF29A626F21204600F060FD601CC4B244
:103C10006C2CEFDB0020FEF753FE00B3FF2024499D
:103C20000870002407E04FF2BE725F21204600F0CA
:103C30004DFD601CC4B2802CF5DB14240DE04FF266
:103C4000BE722F21204600F041FD4FF2BE726F215F
:103C5000204600F03BFD601CC4B26C2CEFDB70BD55
:103C6000B4310020C03A0020F33A002055415254AC
:103C70003120545820253032643A253032640A000D
:103C8000554152543320545820253032643A25305F
:103C900032640A005541525431205258000000004D
:103CA0002573000055415254332052580000000043
:103CB000B031002070B504460D46012D08D1094AE7
:103CC00032F81410084A52F82400FEF7B8F807E05A
:103CD000044A32F81410044A52F82400FEF7ADF8F2
:103CE00070BD0000E65200087800002008B50121F0
:103CF0001020FEF707F903208DF8020010208DF840
:103D000003000F20ADF8000069460248FDF7B8FF38
:103D100008BD00000010014010B5044604EB840209
:103D2000054B03EB8202918804EB840253F82200D6
:103D3000FEF77AF810BD0000EC31002010B501212B
:103D40000B48FEF77AF800F015F802210848FEF754
:103D500074F800F00FF801210548FEF770F800F044
:103D600009F801210248FEF768F800F003F810BDD9
:103D7000000801404FF4C87001E0411E88B20028DD
:103D8000FBD1704710B501210B48FEF756F8FFF73D
:103D9000F1FF02210848FEF752F8FFF7EBFF01217F
:103DA0000548FEF74CF8FFF7E5FF01210248FEF752
:103DB00044F8FFF7DFFF10BD0008014070B505466D
:103DC0000C46164600F08EF808B9002070BD42205F
:103DD00000F05CF800F0CCF818B900F0ADF8002065
:103DE000F4E7304600F052F800F0C2F800F0A4F812
:103DF00000F078F808B90020E8E7432000F046F822
:103E000000F0B6F818B900F097F80020DEE70CE0F3
:103E100000F012F82870012C02D1FFF7B3FF01E087
:103E2000FFF78CFF6D1C601E84B2002CF0D100F0F7
:103E300083F80120CAE7000070B50825002402219C
:103E40001148FDF7FCFF14E06006040E01210E4846
:103E5000FDF7F3FFFFF78EFF01210B48FDF7EFFFA2
:103E6000FFF788FF02210848FDF7DEFF08B144F0A4
:103E70000104281EA5F10101CDB2E5D101210248BE
:103E8000FDF7DBFF204670BD0008014070B5044619
:103E900008251BE001211248FDF7CFFFFFF76AFF5D
:103EA00004F0800020B102210D48FDF7C8FF03E0B7
:103EB00002210B48FDF7C1FF6006040EFFF75AFF11
:103EC00001210748FDF7BBFFFFF754FF281EA5F1AE
:103ED0000101CDB2DED101210148FDF7AEFF70BD79
:103EE0000008014010B502211248FDF7A8FF01218A
:103EF0001048FDF7A4FFFFF73DFF02210D48FDF735
:103F000093FF08B9002010BD02210A48FDF795FF74
:103F1000FFF730FF02210748FDF786FF08B10020B8
:103F2000F1E702210348FDF788FFFFF723FF012097
:103F3000E9E700000008014010B501210B48FDF73A
:103F40007CFFFFF717FF02210848FDF776FFFFF718
:103F500011FF01210548FDF772FFFFF70BFF02215A
:103F60000248FDF76CFFFFF705FF10BD0008014098
:103F700010B501211048FDF760FFFFF7FBFE02219D
:103F80000D48FDF75CFFFFF7F5FE01210A48FDF73C
:103F900056FFFFF7EFFE02210748FDF745FF28B166
:103FA00001210548FDF749FF002010BD012102480D
:103FB000FDF743FF0120F8E70008014070B5044613
:103FC0000D46FFF78FFF08B9002070BD4220FFF7B4
:103FD0005DFFFFF7CDFF18B9FFF7AEFF0020F4E754
:103FE000E0B2FFF753FFFFF7C3FF2846FFF74EFF8E
:103FF000FFF7BEFFFFF7A0FF0120E6E770B504461C
:104000000D461CB929460548FEF775FA012C03D167
:1040100029460248FEF775FA70BD0000002C0140E9
:1040200070B588B006460C461546012140F60500DD
:10403000FDF768FF18208DF81F0003208DF81E0083
:104040004FF41060ADF81C0007A92448FDF718FED6
:104050000020ADF81200ADF816008DF81800ADF88C
:104060001060ADF8144004A91D48FEF74FFA002077
:10407000ADF80800ADF80A006020ADF8000000209F
:10408000ADF80C00ADF80E000120ADF802000420E0
:10409000ADF80400ADF8065069461148FEF7D0F8B7
:1040A00001210F48FEF718F969460D48FEF7D8F9C7
:1040B00001210B48FEF712FA01210948FEF798F892
:1040C00001210748FEF7A0F800210548FEF71CFA79
:1040D00001210348FEF7A4F808B070BD00080140B4
:1040E000002C014030B5024602EB82032C4C04EB5D
:1040F00043035B5C02EB82042A4D05EB4404645CE1
:10410000A3421FD102EB8203274C04EB830333F855
:10411000113002EB8204254D05EB840434F8114084
:10412000A3420FD102EB8203214C04EB830333F84B
:10413000113002EB82041F4D05EB840434F811406A
:10414000A34201D0012300E00023184602EB8203C2
:10415000144C04EB43035B5C02EB8204104D05EB53
:104160004404635402EB8203104C04EB830333F8E2
:10417000113002EB82040C4D05EB840424F811305D
:1041800002EB82030B4C04EB830333F8113002EB98
:104190008204074D05EB840424F8113030BD000083
:1041A000F03200202832002048350020B8330020AB
:1041B00068380020D836002010B5002404E02046DE
:1041C00000F006F8601CC4B20A2CF8DB10BD000039
:1041D00010B5014600201AE0202200EB80030D4CB0
:1041E00004EB43035A540C4A128800EB80030B4C37
:1041F00004EB830323F81120094A128800EB8003A3
:10420000084C04EB830323F81120421CD0B214287D
:10421000E2DB10BD283200208A100020B8330020D5
:1042200088100020D836002010B5012000F040FE94
:104230000A20FEF737FD112000F03AFE7820FEF745
:1042400031FDB12000F034FE012000F059FE2C2099
:1042500000F056FE2D2000F053FEB22000F028FEA4
:10426000012000F04DFE2C2000F04AFE2D2000F031
:1042700047FEB32000F01CFE012000F041FE2C2080
:1042800000F03EFE2D2000F03BFE012000F038FE45
:104290002C2000F035FE2D2000F032FEB42000F07E
:1042A00007FE072000F02CFEC02000F001FEA22037
:1042B00000F026FE022000F023FE842000F020FE05
:1042C000C12000F0F5FDC52000F01AFEC22000F06C
:1042D000EFFD0A2000F014FE002000F011FEC320C4
:1042E00000F0E6FD8A2000F00BFE2A2000F008FE18
:1042F000C42000F0DDFD8A2000F002FEEE2000F078
:10430000FFFDC52000F0D4FD0E2000F0F9FD3620A1
:1043100000F0CEFDC82000F0F3FDE02000F0C8FD65
:10432000022000F0EDFD1C2000F0EAFD072000F067
:10433000E7FD122000F0E4FD372000F0E1FD32201F
:1043400000F0DEFD292000F0DBFD2D2000F0D8FD7F
:10435000292000F0D5FD252000F0D2FD2B2000F013
:10436000CFFD392000F0CCFD002000F0C9FD012078
:1043700000F0C6FD032000F0C3FD102000F0C0FDDA
:10438000E12000F095FD032000F0BAFD1D2000F0B3
:10439000B7FD072000F0B4FD062000F0B1FD2E208F
:1043A00000F0AEFD2C2000F0ABFD292000F0A8FDB0
:1043B0002D2000F0A5FD2E2000F0A2FD2E2000F003
:1043C0009FFD372000F09CFD3F2000F099FD00206C
:1043D00000F096FD002000F093FD022000F090FD1B
:1043E000102000F08DFD2A2000F062FD002000F07A
:1043F00087FD002000F084FD002000F081FD7F207B
:1044000000F07EFD2B2000F053FD002000F078FD31
:10441000002000F075FD002000F072FD9F2000F0EC
:104420006FFD3A2000F044FD052000F069FD2920D1
:1044300000F03EFD0A20FEF735FC10BD70B50446C5
:104440002A2000F035FD002000F05AFD022000F087
:1044500057FD002000F054FD812000F051FD2B207D
:1044600000F026FD002000F04BFD012000F048FD8B
:10447000002000F045FDA02000F042FD2C2000F0BF
:1044800017FD002507E0201200F03AFDE0B200F031
:1044900037FD681C85B2B5F5A04FF4DB70BD000098
:1044A00070B5002420E000251AE0202004EB8401F0
:1044B000114A02EB410148551048008804EB840181
:1044C0000F4A02EB810121F815000E48008804EB29
:1044D00084010D4A02EB810121F81500681CC5B268
:1044E0000A2DE2DB601CC4B2142CDCDB054800881A
:1044F000FFF7A4FF70BD0000F03200208A100020FA
:104500004835002088100020683800202DE9F04749
:1045100080460E461746994600F086F900F00AF9E3
:10452000FFF782FE2C2000F0C3FC304600F014F9A7
:10453000384600F073F9484600F06AF93046FFF754
:104540007DFF1D4880F80080002431E000252BE02D
:10455000202004EB8401194A02EB4101485504EB89
:104560008400174901EB800020F8157004EB8400EB
:10457000144901EB800020F81560202004EB840131
:10458000114A02EB4101485504EB84000F4901EB4D
:10459000800020F8157004EB84000D4901EB8000C9
:1045A00020F81560681CC5B20A2DD1DB601CC4B2AE
:1045B000142CCBDBBDE8F0878E10002028320020C1
:1045C000B8330020D8360020F032002048350020D3
:1045D000683800200FB4F0B5C1B005460E4600277C
:1045E000002449A8009001A8009A4899FBF766FEAC
:1045F0000020009001AC55E020785B2806D114F82B
:10460000010C5C2802D00127641C4AE020785D2858
:1046100006D114F8010C5C2802D00027641C40E08D
:1046200020780D2802D020780A2801D1641C38E0B7
:10463000142D01DC0A2E01DD641C33E020785C2897
:1046400006D160785B2802D060785D2800D1641CB8
:1046500014F8010B05EB8501164A02EB4101885560
:1046600017B11548008801E01448008805EB850162
:10467000134A02EB810121F816001248008805EB6D
:104680008501114A02EB810121F81600142D03DB8C
:104690000025701CC6B201E0681CC5B20A2E00DB02
:1046A000002600BF20780028A6D141B0F0BC5DF8FC
:1046B00014FB0000283200208C1000208A100020FB
:1046C000B833002088100020D836002070B504468A
:1046D0000D4616461648007830B1012809D0022848
:1046E0000ED003281CD114E02946204600F067F8BC
:1046F00016E0C5F17F01C8B2214600F060F80FE076
:10470000C5F19F02D1B2C4F17F02D0B200F057F8D8
:1047100006E0C4F19F00C1B2284600F050F800BF87
:1047200000BF301200F0ECFBF0B200F0E9FB70BD0E
:104730008E10002010B504210648FDF77EFB642092
:10474000FEF7B0FA04210348FDF779FB6420FEF779
:10475000A9FA10BD00080140014908807047000017
:10476000881000202DE9F04104460D4616461F46EC
:104770002A2000F09DFB002000F0C2FBA11CC8B263
:1047800000F0BEFB002000F0BBFBB11CC8B200F083
:10479000B7FB2B2000F08CFB002000F0B1FB691C64
:1047A000C8B200F0ADFB002000F0AAFB791CC8B233
:1047B00000F0A6FB2C2000F07BFBBDE8F08170B57B
:1047C00004460D462A2000F073FB002000F098FB01
:1047D000A11CC8B200F094FB002000F091FBE11C8A
:1047E000C8B200F08DFB2B2000F062FB002000F02F
:1047F00087FB691CC8B200F083FB002000F080FB3F
:10480000A91CC8B200F07CFB2C2000F051FB70BD4D
:1048100001490880704700008C1000200149088081
:10482000704700008A10002000B587B001210420E5
:10483000FDF768FB01210846FDF764FB0121080331
:10484000FDF760FB0C20ADF8040010208DF8070088
:1048500001208DF8060001A92348FDF711FAA020D8
:10486000ADF8040018208DF8070003208DF806002D
:1048700001A91D48FDF704FA1020ADF804008DF8D9
:10488000070003208DF8060001A91748FDF7F8F985
:104890000020ADF808004FF48270ADF80A00002047
:1048A000ADF80C000220ADF80E000120ADF81000AC
:1048B0004002ADF812000820ADF814000020ADF859
:1048C000160002A90948FDF7BDFB01210748FDF7C5
:1048D0009FFB00210548FDF78FFB00210348FDF7F2
:1048E000CFFB07B000BD00000008014000300140D0
:1048F0002DE9F05F0026FE48007808B9BDE8F09F7A
:10490000002468E0002562E005EB8500F94901EB31
:10491000800030F8140000F4004008B1402000E0AE
:10492000002005EB8501F34A02EB810131F81410F8
:1049300001F4806109B1202100E00021084305EB6A
:104940008501EC4A02EB810111F8141001F010010D
:1049500009B1102100E00021084305EB8501E64A7A
:1049600002EB4101085505EB8500E44901EB8000AD
:1049700030F8140000F4004008B1042000E00020EA
:1049800005EB8501DC4A02EB4101095D084305EBBB
:104990008501DA4A02EB810131F8141001F48061DB
:1049A00009B1022100E00021084305EB8501D34A4B
:1049B00002EB810111F81410C1F30011084305EB5B
:1049C0008501CD4A02EB41010855681C05B2102D46
:1049D0009ADB601C04B20A2C94DBC948007830B121
:1049E00001287CD002287BD003287AD1BEE10024A4
:1049F00088E0002581E0E1B2E8B2FFF773FB002810
:104A000079D0012605E0A819102800DB0BE0701C06
:104A100006B2A819102806DAE1B2AA19D0B2FFF737
:104A200061FB0028EFD100BF04F1010C4FF0010E33
:104A3000CEEB0C1C0CF0FF0305EB060CCEEBCC0C04
:104A40000CF0FF024FEA047C4FEA1C614FEAC56C90
:104A50004FEA1C60FFF786FEA2464FF0000844E0D4
:104A6000002736E03846F91707EB517105EBE101F5
:104A70000FFA81F9F91707EB5171C910A7EBC102C1
:104A80008021114109EB89029E4B03EB420212F88F
:104A90000A2008EB02129C4B9A5C114039B109EBD9
:104AA0008901944A02EB810131F81A1006E009EB02
:104AB0008901924A02EB810131F81A108B464FEAC4
:104AC0002B2000F01DFA0BF0FF0000F019FA781C03
:104AD00007B2B7EBC60FC5DB08F1010003E015E034
:104AE000A3E0D2E107E00FFA80F8B8F1100FB7DBCE
:104AF000701E284405B2681C05B2102DFFF67BAF6E
:104B0000601C04B20A2CFFF674AFBEE1002588E0F9
:104B1000072481E0E1B2E8B2FFF7E4FA002879D097
:104B2000012604E0A01B00D50AE0701C06B2A01B01
:104B300006D4A21BD1B2E8B2FFF7D4FA0028F1D113
:104B400000BF05F1010C4FF0010ECEEBCC0C0CF0C8
:104B5000FF03C4F1070CB444CEEB0C1C0CF0FF02B5
:104B60004FEAC56C4FEA1C61C4F1070C4FEA0C7C9C
:104B70004FEA1C60FFF7F6FDA946002745E04FF01D
:104B800000083DE040464FEAE87108EB1171A4EBE4
:104B900021110FFA81FA4FEAE87108EB117109113E
:104BA000A8EB011209EB8901564B03EB410111F807
:104BB0000A10102303EB0111891A491E524A515C55
:104BC00080223A41114039B109EB8901494A02EB8F
:104BD000810131F81A1006E009EB8901474A02EB1E
:104BE000810131F81A108B464FEA2B2000F088F92A
:104BF0000BF0FF0000F084F908F101000FFA80F8D3
:104C0000B8EB061FBEDB781C07B2082FB7DB701E9F
:104C1000201A04B2601E04B2002CBFF67BAF681CE1
:104C200005B2142DFFF674AF2FE109249AE00F2589
:104C300093E0E1B2E8B2FFF755FA002866D001260A
:104C400004E0A81B00D50AE0701C06B2A81B06D41D
:104C5000E1B2AA1BD0B2FFF745FA0028F1D100BF9C
:104C6000C4F10A0C4FF0010ECEEB0C1C0CF0FF034C
:104C7000C5F10F0CB444CEEBCC0C0CF0FF02C4F128
:104C8000090C4FEA0C7C4FEA1C61C5F10F0C4FEA8E
:104C9000CC6C4FEA1C60FFF765FDA2464FF00008A0
:104CA00053E000274AE03846F91707EB5171A5EBAE
:104CB000E1010FFA81F9C8F10F0109EB8902114BEB
:104CC00003EB420212F80A2001EB02110E4A515C7A
:104CD000FA1707EB5272D210A7EBC202C2F1070219
:104CE000802313411940B9B109EB8901014A0EE053
:104CF0008F100020B8330020F8390020D83600206B
:104D00008E100020283200208800002023E002EBD3
:104D1000810131F81A1006E009EB89015F4A02EBC4
:104D2000810131F81A108B464FEA2B2000F0E8F889
:104D30000BF0FF0000F0E4F8781C07B2B7EBC60FE9
:104D4000B1DB08F101000FFA80F8B8F1100FA8DB11
:104D5000701E281A05B2681E05B2002DBFF669AF95
:104D6000601E04B2002CBFF662AF8EE0132588E00F
:104D7000002481E0E1B2E8B2FFF7B4F978B301268C
:104D800005E0A019082800DB0BE0701C06B2A01992
:104D9000082806DAA219D1B2E8B2FFF7A3F9002871
:104DA000EFD100BFC5F1140C4FF0010ECEEBCC0CCF
:104DB0000CF0FF0304EB060CCEEB0C1C0CF0FF0216
:104DC000C5F1130C4FEACC6C4FEA1C614FEA047C2E
:104DD0004FEA1C60FFF7C6FCA946002745E049E002
:104DE0004FF000083CE040464FEAE87108EB1171D3
:104DF00004EB21110FFA81FA4FEAE87108EB117107
:104E00000911A8EB011209EB8901254B03EB4101C4
:104E100011F80A1002EB0111224A515CC7F1070296
:104E200080231341194039B109EB89011E4A02EB75
:104E3000810131F81A1006E009EB8901174A02EBEB
:104E4000810131F81A108B464FEA2B2000F058F8F8
:104E50000BF0FF0000F054F808F101000FFA80F8A1
:104E6000B8EB061FBFDB781C07B2082FB8DB701E3B
:104E7000204404B2601C04B2082CFFF67BAF681E0D
:104E800005B2002DBFF674AF00BF00BF0748006831
:104E900010B106480068804700BF2FE5D8360020D3
:104EA0002832002088000020B83300209410002011
:104EB00010B5044610211048FCF7BFFF08210E482A
:104EC000FCF7BBFF00BF02210C48FDF7ADF800283E
:104ED000F9D021460948FDF7B3F800BF0121074882
:104EE000FDF7A2F80028F9D00448FDF7A6F8102134
:104EF0000148FCF7A4FF10BD00080140003001404C
:104F000010B5044610211048FCF797FF08210E4801
:104F1000FCF795FF00BF02210C48FDF785F800283B
:104F2000F9D021460948FDF78BF800BF0121074859
:104F3000FDF77AF80028F9D00448FDF77EF8102133
:104F40000148FCF77CFF10BD000801400030014023
:104F500038B500208DF801008DF8020001208DF891
:104F60000300FF208DF800006846FCF76FFF17482C
:104F700000684FF47A72B0FBF2F1B1F1807F00D398
:104F80001DE021F07F40401E4FF0E022506150179D
:104F90000F22002807DA13071D0E0D4B00F00F0437
:104FA000241F1D5503E013071C0E0A4B1C5400BFA1
:104FB00000204FF0E02290610720106100BF012027
:104FC0000549087000200549086038BD140000201C
:104FD00018ED00E000E400E02C0000202800002094
:104FE0000020014908607047280000200146002089
:104FF0001EE0134A125C0A2A12D1112805DC02D1E4
:1050000000220F4B5A7411200CE0222806DC03D139
:1050100000220B4B83F82220222003E0322001E003
:10502000421CD0B2102801D0212801D1421CD0B29C
:10503000034A125C0AB13228DBDB014A1154704783
:10504000C03A0020014600201EE0134A125C0A2AE2
:1050500012D1112805DC02D100220F4B5A74112005
:105060000CE0222806DC03D100220B4B83F822201F
:10507000222003E0322001E0421CD0B2102801D0EF
:10508000212801D1421CD0B2034A125C0AB1322855
:10509000DBDB014A11547047F33A002030B585B08C
:1050A00004460D462E4951F82410094341F00100F1
:1050B0000121FCF727FF34B92A4951F824000121C6
:1050C000FCF720FF05E0274951F824000121FCF7F7
:1050D00009FF18208DF81300234830F81400ADF8AC
:1050E000100003208DF81200204951F8240004A973
:1050F000FCF7C6FD04208DF813001D4830F814009D
:10510000ADF810001B4951F8240004A9FCF7B8FDC4
:1051100001211948FCF740FE00950020ADF804007D
:10512000ADF80600ADF80800ADF80C000C20ADF8A5
:105130000A00124951F824006946FDF7EDFA0F49BB
:1051400051F82400012240F22551FDF7BFFA0B4926
:1051500051F824000121FDF776FA05B030BD0000BA
:10516000C4520008CC520008D4520008500000205D
:10517000D8520008580000201000140048000020F9
:1051800038B5044600214FF00060FCF7A1FE0C4842
:1051900010F814008DF8000001208DF801008DF842
:1051A00002008DF803006846FCF750FE054951F8EF
:1051B0002400012240F22551FDF788FA38BD000095
:1051C000DC5200084800002070B504460D46054832
:1051D00040F824500120044908552046FFF7D0FF2D
:1051E00070BD000060000020680000200FB430B5E2
:1051F000C1B0054646A840906846409A4599FBF7DD
:105200005DF8002040906C4604E014F8011B28462D
:1052100000F008F820780028F7D141B030BC5DF8E4
:1052200014FB000070B504460D4600BF074951F855
:1052300024004021FDF713FA0028F7D0034951F864
:1052400024002946FDF7D9FA70BD0000480000206F
:1052500010B500290AD00878002807D005487844FE
:10526000FCF758F8002801D0002010BD024878440F
:1052700010BD0000360200002E02000010B500290B
:105280000AD00878002807D005487844FCF742F88F
:10529000002801D0002010BD0248784410BD000055
:1052A000260200001E020000FBF745BCFBF77ABD9A
:1052B00040000010040000200040008004000000B6
:1052C000100000000400000010000000004000007A
:1052D000000004000002000400040008250027006C
:1052E000080010002000010002000400080004284B
:1052F000481410000000000000000000303132337C
:1053000034353637383941424344454640305800F9
:10531000303132333435363738396162636465662B
:105320004030780004000008000000000000000287
:1053300000010000103031323334353637383961EE
:1053400062636465667870003031323334353637E5
:10535000383941424344454658500000024000005D
:10536000000000A00000000005400000000000C890
:10537000000000000C4000000000409C0000000005
:10538000194000000020BCBE0000000034400000B6
:10539000BFC91B8E00000004B5400000504BCFD0A9
:1053A0006607E2CF010000006C4100003E8251AA76
:1053B000DFEEA73401000000D9420000DCB5A0E216
:1053C0003A301F97FFFFFFFFB4450000FD25A0C83E
:1053D000E9A3C14FFFFFFFFFFF3F00000000008077
:1053E00000000000FF3F00000000008000000000FF
:1053F0002020202049504420202020002020202050
:10540000495055202020200020204F75745F4F44C4
:105410002020200020204F75745F50502020200055
:105420004C454400494E5F464C4F4154494E47005D
:1054300041534349490000004750494F00000000D4
:10544000554152540000000043616D6572610000D7
:10545000506E65756D617469630000005365727606
:105460006F00000042757A7A657200004D6F746FAC
:1054700072000000C055000800000020EC31000060
:10548000280100082C5E0008EC310020AC0F000061
:105490008C0100081C00000043000000F8FFFFFF23
:1054A0000C0000000E0000000F0000002E000000A5
:1054B0001001000043000000F8FFFFFF00404040E3
:1054C00040404040404041414141414040404040D7
:1054D0004040404040404040404040404005020283
:1054E0000202020202020202020202020220202042
:1054F000202020202020200202020202020290909E
:10550000909090901010101010101010101010109B
:1055100010101010101010100202020202028888EF
:1055200088888888080808080808080808080808FB
:1055300008080808080808080202020240000000E3
:10554000000000000000000000000000000000005B
:10555000000000000000000000000000000000004B
:10556000000000000000000000000000000000003B
:10557000000000000000000000000000000000002B
:10558000000000000000000000000000000000001B
:10559000000000000000000000000000000000000B
:1055A00000000000000000000000000000000000FB
:1055B00000000000000000000000000000000000EB
:1055C00012000120050102030404500E0607080919
:1055D0000204060800A24A040001611861101007C5
:1055E00000080140001004521408610412380470CD
:1055F00004480040206108A101120C146104D2107B
:1056000004F101500B7E81A58181BD9981817E10BD
:105610005009FFDBFFFFC3E7FFFF10100500006C20
:10562000FE0160047C381010A00410387C0F700A52
:10563000183C3CE7E7E718183C10127E3D8110410A
:105640002342185E32FF0123E7C361210A316180E2
:10565000073C664242663C205007C399BDBD99C3D2
:105660002010071E0E1A3278CC0142788E133C6649
:1056700001133C1861419E10053F333F3001400447
:1056800070F0E06210057F637F6301500567E7E615
:10569000C07D500718DB3CE73CDB30340C80C0E0B9
:1056A000F0F8FEF8F0E0C08068700C02060E1E3EB6
:1056B000FE3E1E0E0602BF60051818187EB143009C
:1056C0006601110851602006DBDBDB7B1B01353FE7
:1056D000940D7CC660386CC6C66C380CC67C5625EA
:1056E00033D150A27E602101619F3101817111137C
:1056F00080040CFE0C0EA40800003060FE6030B484
:105700009005C0C0C0FE208406286CFE6C286E8008
:10571000071038387C7CFE2115BD877C38BFD90046
:1057200015BF223C8D5520155DCA2421126C5E31B7
:1057300004454D640B7CC6C2C07C060686C67C82CE
:105740004409C2C60C183060C686A01407386C6CB9
:105750003876DCB04276BCC8043030609D2618AF85
:1057600050053030180CDD33180C018218E2A00609
:10577000663CFF3C66A385EE91149131031100FE57
:10578000D87550230206A055F011A02405C6C6D630
:10579000D6B2599C573878824D1003437CC62F737C
:1057A000C6FE106406063C060606DF10070C1C3C0D
:1057B0006CCCFEB1561E5E158D92FC201338601025
:1057C00012C601511012FE4041F46160111B91207C
:1057D000210C127E60B30C78BA91F1511065203122
:1057E000CE15368E06C3033103653E311C2124716C
:1057F00070960CE031715006DEDEDEDCC0B02610A3
:105800001122FE91454B1AFCF12A7CF56EFC7003C7
:1058100012C2E25FC0C2A1034C0400F86C1203572D
:105820006CF800B00A6662687868606266FE109084
:10583000046060F0404006DEC6C6663A40251B3173
:105840006F51705E3C01036D40043A1E0E8DF003F3
:1058500012E66B1378787542E68033F06001717060
:105860009006C6EEFEFED6508007C6E6F6FEDECEF9
:1058700010356C959031E08260A051207406D6DE20
:105880007C0C0E0021E476E6B0700560380C064012
:10589000B0047E7E5AB0D2C660510E6E6C210531C6
:1058A0005D6006D6D6FEEE6C201E6C8E03637C6CAB
:1058B000A04DCF0481502C04FEC6864F036AC280DF
:1058C0004E3C2F036F303060051DC2047C047038DD
:1058D0001CB0044E3C3F0364040C0C3CCE0D15E997
:1058E000031D5D054D6F03FD03067C04780C7CB041
:1058F00003240500E060606E152579601B7CC6E41A
:1059000069E0121C6A836CCC30395292FE202C055F
:1059100036323078920579D02F0076BF053404CC2A
:105920007C0CD3116084046C7666601D7B04AA38FD
:105930000030060606000E06013E661406113049C8
:10594000015590DA3830191317ECFE6182D6F85EF3
:10595000DCB30581A09D700371207A7C0361A06D8A
:10596000D3038804DC7666C05DE4057DDF0524058D
:10597000103030FC8F73361C7031DF951059019157
:10598000102901826C20A4046C3838A849336C04B7
:105990007E060C53032ECC50055D40061E0E9B0464
:1059A0002E703006BE0E30067D4006211C21249745
:1059B0001870D29F76DC0A053DE203614F1DB104E9
:1059C000328201811023D6AA028110A007868A8A1A
:1059D000DAF2B2206005DEFAF6BA10CACC301D8ABF
:1059E00004B1101E385805B950894031A219A1C917
:1059F00030CAC6402150B120BB6600201E181A06CE
:105A0000A1102180A1108EC6D104518F2DE1047DFB
:105A1000E0041D58074DB1047D400429404C073671
:105A2000367ED8D86E50081A3EDD26FED266CE3DB0
:105A3000C940CAC65041B08110B8043078CC10219A
:105A4000D0B92096C6F01D10037EC6A1044500CF34
:105A5000C600B0042D7107453E4DA0073C05386CCB
:105A6000646003055EE6A0054D0D096A7E101C0802
:105A7000F8CCCCF8C4CCDEA1034DD0052F0E1B5DB5
:105A8000081D82084AD8202D1806A5B02D7807B524
:105A9000601120A1D02110B1C0195B9D6003110ECF
:105AA0007D71055DF005AC046C6C3E8F062D100811
:105AB0009E001B091D08071D1308AEC090033D443E
:105AC00007AEC03E092D01045DCE061C05E06266EE
:105AD0006C0F031EDC1605823E10400566CE9A3F11
