:020000040800F2
:10000000481F00207D0200088502000887020008C2
:10001000890200088B0200088D0200080000000021
:100020000000000000000000000000008F02000837
:10003000910200080000000093020008FD1E000865
:10004000970200089702000897020008970200082C
:10005000970200089702000897020008970200081C
:10006000970200089702000897020008970200080C
:1000700097020008970200089702000897020008FC
:1000800097020008970200089702000897020008EC
:1000900097020008970200089702000897020008DC
:1000A00097020008970200089702000897020008CC
:1000B00097020008970200089702000897020008BC
:1000C00097020008970200089702000897020008AC
:1000D000970200086D1F000897020008A91F00087A
:1000E00097020008970200089702000800F002F843
:1000F00000F0B4F80AA090E8000C82448344AAF10E
:100100000107DA4501D100F0A9F8AFF2090EBAE80B
:100110000F0013F0010F18BFFB1A43F0010318473B
:10012000C4310000E431000010F8013B0A4413F030
:10013000030408BF10F8014B1D1108BF10F8015B44
:10014000641E05D010F8016B641E01F8016BF9D133
:10015000002D15D010F8014B03F00C030C2BA1EB74
:1001600004040ABF10F8013BA4EB8314A4EB03249E
:1001700005F1010314F8016B5B1E01F8016BF9D561
:10018000914238BF10F8013BD1D3704700230024BF
:1001900000250026103A28BF78C1FBD8520728BF97
:1001A00030C148BF0B6070476E2900F03B81702959
:1001B00000F07D82662903F01380652903F010802A
:1001C000672903F00D80612903F00C8003681B0A86
:1001D00028BF41F08001692900F0E880642900F01F
:1001E000E580752900F0E2806F2900F00A82782905
:1001F00000F04982E92900F0A581E42900F0A281FC
:10020000F52900F09F81EF2900F00782F82900F01E
:1002100048820368DB0928BF41F08001632900F0B0
:100220004987732900F04E87E32900F05987F329A5
:1002300000F05E87002070471FB500F0ABFF0400A0
:100240000020002102F0B6FF401C60600020002169
:1002500002F09AFFE0601FBD10B510BD00F06CFF0A
:100260001146FFF7E9FF01F035FF01F045F803B44F
:10027000FFF7F2FF03BC01F08DF80000094880474A
:1002800009480047FEE7FEE7FEE7FEE7FEE7FEE778
:10029000FEE7FEE7FEE7FEE704480549054A064B90
:1002A000704700000D1F0008ED00000848190020ED
:1002B000481F0020481B0020481B00201CB50C468E
:1002C000064B7B4469460090204600F0C4F8044683
:1002D0000020694600F0D2F820461CBDB70100009E
:1002E00070477047704770B5044685690068C1065D
:1002F00001D5302600E02026C00707D070BDD4E924
:10030000012130469047206A401C20626D1EF6D5C0
:1003100070BD70B5044685690078C00707D170BD0F
:10032000D4E9012120209047206A401C20626D1EE4
:10033000F6D570BD09684A0501D540B27047C905B8
:10034000FCD500B2704709684A0501D5C0B27047B4
:10035000C905FCD580B2704770B50C460546012A28
:1003600005D02878800600D5EA69002302E0012341
:1003700005E05B1C934202D2E05C0028F9D1A86939
:10038000E618C01AA861286A184428622846FFF7B0
:10039000AAFF04E0D5E9012114F8010B9047B4420B
:1003A000F8D32846FFF7B5FF70BD00002DE9F041F6
:1003B0000646002410687529314616A510D0FFF7AF
:1003C000B9FF002802DA404213A507E031688A0726
:1003D00001D512A502E0490704D511A5012401E0C9
:1003E000FFF7B1FF00210A2206F1240709E0B0FB64
:1003F000F2FCB0FBF2F302FB1C00303078541846DC
:10040000491C0028F3D123462A463046BDE8F04176
:1004100000F061BA000000002D0000002B00000079
:100420002000000011680268006A530501D50870B9
:100430000AE0D30501D5088006E0130603D5C217EC
:10044000C1E9000200E008600120704701694A1C10
:1004500002610878704700B58FB0CDE90131002105
:10046000059105497944CDE903101146684600F02D
:1004700029F90FB000BD0000E5FFFFFF0A6802F890
:10048000010B0A60704700002DE9FF5F15468A46A0
:100490000446DFF8AC80F8440027D8E900103E4657
:1004A000CDE9001010E03AF816106A4602A800F0F4
:1004B00023FE411C07D02178890603D5E26939184B
:1004C00091420DD80744761C2078800602D5E06959
:1004D000B84205DDAE42E6DB3AF816000028E2D16C
:1004E000A069C01BA0612046FFF7FDFED8E90010FF
:1004F000CDE90010002017E03AF818106A4602A86B
:1005000000F0FAFDB0F1FF3F81460BD000250DF160
:10051000080B05E0D4E901211BF8050090476D1C8C
:100520004D45F7D308F10100B0428046E4DB206A74
:10053000384420622046FFF7ECFEBDE8FF9F000034
:100540004E2D00002DE9F0418046D21D22F0070219
:100550000025D2E90002F52915A614D0011E72F17A
:10056000000106DA0023D0EB030063EB020211A6C0
:1005700008E0D8F800108B0701D50FA602E0490764
:1005800001D50EA601251146002408F1240704E038
:1005900000F05CF930323A55641C50EA0102F7D1A0
:1005A0002B46324621464046BDE8F04100F093B963
:1005B000000000002D0000002B00000020000000C3
:1005C00030B4002100F1240408E002F00705D2084D
:1005D000303542EA4372DB086554491C52EA030590
:1005E000F3D10468002310A2250707D5A40600D480
:1005F00021B1C46901230DA2641EC46130BC00F0A6
:100600006AB910B5044621461068FFF79CFE024601
:100610002046BDE810400023D2E7D21D22F007019A
:10062000D1E90023CCE7000000000000300000000A
:10063000F0B40D460188090502D5214C7C4402E046
:100640001F4C7C440E34002100F1240608E002F027
:100650000F071209E75D42EA03721B097754491C30
:1006600052EA0307F3D102780023120704D5702D54
:1006700006D009B1022311342246F0BC00F02BB998
:1006800001231034F8E770B504460D462146106882
:10069000FFF759FE024629462046BDE87040002378
:1006A000C6E7D21D22F00703D3E90023C0E70368A1
:1006B000126843F0200303600823C3610023B7E7F7
:1006C000B02B00002DE9F05F894604464FF0000A88
:1006D000DFF874B1FB44C0F820A02046E1688847E9
:1006E000002874D0252806D0D4E901219047206A3B
:1006F000401C2062F1E700265F462046E1688847FB
:100700002028054607DB312D05D2781910F8200C7A
:1007100008B10643F1E7B00701D526F00406C4F896
:100720001CA00027C4F818A02A2D09D0284601F0E3
:10073000ABFC38B304EB8708303DC8F8185019E01B
:1007400059F8041B204604EB87029161E168884751
:10075000012F054618D1E069002820DA26F020068E
:100760001DE0D8F8180000EB800005EB40003038A1
:10077000C8F818002046E1688847054601F084FC67
:100780000028EED1012F0AD02E2D08D12046E16895
:1007900088477F1C0546022F46F02006C4DBA0696F
:1007A000002803DA404246F00106A061F00701D0BC
:1007B00026F010066C2D0BD0682D09D04C2D39D0A9
:1007C0006A2D35D0742D35D07A2D33D016E038E02F
:1007D000E1682F4620468847B842054609D16C2F6C
:1007E00026D04FF48060E1680643204688470546DE
:1007F00004E06C2F1AD04FF4807006430DB3A5F1BE
:100800004100192802D8203546F400664A46294698
:10081000204626604E46FFF7C7FC80B101280BD06A
:10082000F61D26F0070000F1080956E74020E4E72E
:100830008020D8E70020D6E706F104094DE72846D6
:1008400052E7206ABDE8F09F402B000030B5B0F1C0
:100850000A024FEA900E71F100034EEA817EB0EB7E
:100860000E0061EB91014FEA101E4EEA017E10EB83
:100870000E0041EB11114FEA102E4EEA016E10EB03
:100880000E0041EB11214FEA104E4EEA014E10EBE3
:100890000E0041EB1141401841F100014FEAD00038
:1008A00040EA41704FEAD10110EB80054FEA810424
:1008B00044EA907444EB01046D1944EB0404521BA8
:1008C000A3414FF0000348BF0A3200D530BD401CA1
:1008D00041F1000130BD2DE9F0470D4699469246A1
:1008E000044600F124080168880604D5E06921F077
:1008F0001001216000E00120A84201DD471B00E05B
:100900000027A1697A1902EB0900081AA061207872
:10091000C00602D42046FFF7E6FC002608E0D4E932
:1009200001211AF806009047206A401C761C2062BC
:100930004E45F4DB2078C0060AD52046FFF7D3FCED
:1009400006E0D4E9012130209047206A401C206253
:10095000381EA7F10107F4DC07E0D4E9012118F8FB
:1009600005009047206A401C2062281EA5F1010561
:10097000F3DC2046FFF7CDFC2078000602D50220EC
:10098000BDE8F0870120FBE770472DE9FF4F0C46DB
:100990001E464FF0FF378BB0D2E90001DDF86080D2
:1009A0000A908A46C1F30A5505B93D46002108461A
:1009B0004FF00000BAF1000F00F4400005DA00EB40
:1009C00080004FF4400101EA50004FEA9059B9F11C
:1009D000010F00DDB9460A9850EA4A000ED044F6ED
:1009E0001050A5F2FF3545432F14B8F1000F1ED06B
:1009F0007542291E1EDDC9F100021CE0B8F1010F8D
:100A00004FF0000001D0302103E0F24305E0215413
:100A1000401CB042FBDB30460022002121540B99E0
:100A2000C1F80880C1E900200FB0BDE8F08FBD1B00
:100A30006D1CDEE74A4600DA694206A800F0EEFBCC
:100A400006AB93E8070003AB83E8070050460A991A
:100A500000F0A7FC8DE80700A0F500501F380090BB
:100A60000398002D09DD42F21F014A46084403A9FC
:100A70000390684600F006FF08E0A0F500504A46E3
:100A80001F3803A90390684600F010FF8DE80700A7
:100A90000004000C03D04FF0FF30410800E0104686
:100AA000B8F1000F03D00022009215461EE0751E1B
:100AB00005D4FFF7CBFE303262556D1EF9D5B34633
:100AC0000122084302D000227F1C04E02078302855
:100AD00001D100227F1E002A099786D01DE0112D2A
:100AE00007DAFFF7B3FE303262556D1C50EA01029F
:100AF000F5D1084302D00098C8B10EE00021681E6D
:100B000005E0235C625C63542254401E491C814210
:100B1000F7DBAB46A81B401E0990002004F80B0031
:100B20000B98099AC0F80880C0E9002B7CE71126D1
:100B30004FF0000859E72DE9F04F88460446D21DD2
:100B400022F0070191B0D1E90001CDE90A0101F0DD
:100B500087FA02460B98C00F01D02D2007E02068CD
:100B6000810701D52B2002E0202101EAC000032AE1
:100B7000099001D0072A05DB03464146204600F0D4
:100B80000DFB0BE12078800601D5E06900E006202E
:100B9000B8F1650F814606D0B8F1660F18D0B8F1EC
:100BA000670F70D131E00020B9F1110F009001DB27
:100BB000112301E009F101030AAA01A90CA8FFF71A
:100BC000E4FEDDE90C70002609F10105834647E0EB
:100BD00001204B4600904FF000470AAA01A90CA83B
:100BE000FFF7D3FEDDE90DB00C995D46002610B984
:100BF00009F101000D18B9EB050003D4C0F1FF366F
:100C000009F10105A5EB09002BE0B9F1010F01DAAB
:100C10004FF001090020B9F1110F0090484601DDA5
:100C2000112300E003460AAA01A90CA8FFF7ADFEB4
:100C3000DDE90C704D4600268346207800070AD473
:100C4000AB4500DA5D4601A8012D04DD411911F81C
:100C5000011C302907D04F4502DA17F1040F04DADE
:100C6000012082460FE06D1EEEE7002F02DCED1B37
:100C70003E4403E0781CA84200DD7D1CB81B00F157
:100C8000010A4FF000472078000703D4AA4501DB92
:100C90004FF0FF3A0021B7F1004F0DF143088DF8F6
:100CA000431024D002202B23002F01DA7F422D2372
:100CB0000A21021EA0F1010000DC5FB197FBF1FCEC
:100CC00097FBF1F201FB1C7C17460CF1300C08F885
:100CD00001CDEEE7A8F1010003702188090501D5D7
:100CE000452100E06521A0F1010800F8011C0998E8
:100CF0000FA9A1EB0807FF1D00B10120411901EB6D
:100D0000EA70A1693844081A401EA0612078C00624
:100D100002D42046FFF7E7FA099828B1D4E9012167
:100D20009047206A401C20622078C00622D52046C9
:100D3000FFF7D9FA1EE0002E04DBB34502DD01A85F
:100D4000805D00E03020D4E901219047206A401CFA
:100D50002062761CAAF101005FEA000A0AD100F0C5
:100D600019FAC0680168405CD4E901219047206A03
:100D7000401C2062281EA5F10105DCDC07E0D4E957
:100D8000012118F8010B9047206A401C2062381E90
:100D9000A7F10107F3DC2046FFF7BBFA032011B0EF
:100DA00043E600002DE9F04F04460D46D21D22F027
:100DB000070089B0D0E900974846394601F050F95C
:100DC0000246F80F01D02D2307E02068810701D5E6
:100DD0002B2302E0202101EAC0038DF820300BB163
:100DE000012000E00020032A824601D0072A04DB0C
:100DF0002946204600F0D2F93FE12078800601D450
:100E00000D2500E0E569C7F30A560D2D49DA0021EA
:100E10004FEA175B08464FF00000002F00F4400037
:100E200007DA00EB80004FF4400100EBD07001EADC
:100E300060008115012901DD4FF0FF3100224FEAEA
:100E4000850CBCF1180F06D31346ACF118004FF017
:100E50008052C24003E04FF4801323FA0CF30CF1EC
:100E60000C0CBCF1200F04D3ACF1200C09FA0CF0EF
:100E700001E007FA0CF000294FF0004801DD18B935
:100E80000FE00ED140450CD319EB02095F4121B9A7
:100E9000404502D19F4329EA0209BBEB175F00D00E
:100EA000761C2088000502D57B48784402E07A4809
:100EB0007844193808AA302302F80A30037C0AF172
:100EC0000101002E0AF1020A53546A4602DC4FF077
:100ED000300101E04FF031014FF001088DF80010B2
:100EE00002D0A6F2FF3603E059EA470100D06B4E6C
:100EF000002D02DC2178090704D54FF002082E21CD
:100F00008DF80110C44600210BE0C7F303433F01F5
:100F1000C35C491C6D1E02F80830052908F1010860
:100F200001DA002DF1DC00210CE000EB1973491C03
:100F30001B786D1E082902F808304FEA091908F1DC
:100F4000010801DA002DF0DC21688B0602D516E0DD
:100F5000A8F10108E04505DD02EB080313F8013CA8
:100F6000302BF5D0B8F1000F09DD02EB080313F8C0
:100F7000013C2E2B03D1090701D4A8F10108002D53
:100F800005DD3E2102F808106D1E08F10108407CC5
:100F9000002E02F8080008F1010804DA2D2076423C
:100FA00002F8080002E02B2002F808000A214FF4A2
:100FB0007A70864208F101080BDB96FBF0F33033C0
:100FC00002F8083096FBF0F308F1010800FB136605
:100FD00001E0642E0CDB642096FBF0F3303302F862
:100FE000083096FBF0F308F1010800FB136601E0FE
:100FF0000A2E06DB96FBF1F0303002F8080008F10B
:10100000010896FBF1F001FB1060303002F8080097
:10101000A16908F1010808EB050202EB0A00081AB1
:10102000A0612078C00602D42046FFF75CF9216A4F
:1010300008AE01EB0A00206204E0D4E9012116F8B1
:10104000010B9047BAF1010AF7D22078C00602D509
:101050002046FFF748F96E4609E016F8010B3E28D6
:101060000FD0D4E901219047206A401C2062B8F1DA
:101070000108F2D22046FFF74CF909B00320BDE881
:10108000F08F206A2844206203E0D4E90121302057
:1010900090476D1EEBD3F8E78E23000002FCFFFFA4
:1010A00010B5436913B1AFF3008001E0FFF754F9C5
:1010B000012010BD127800F124010A7000224A704C
:1010C0000122EDE711684FF0FF32E9E710B54369FF
:1010D00013B1AFF3008001E0FFF7D6F9012010BD96
:1010E000128800F1240182840022C2840122EDE7EB
:1010F00011684FF0FF32E9E770B516460C46054619
:1011000000F040F8036893F80101012806D0FF2C95
:101110000FD8185D68B101202C7070BDD3F807019D
:101120003246214603F2071303442846BDE87040C7
:1011300018474FF0FF3070BD754600F0E7F8AE4637
:1011400005006946534620F00700854618B020B5D3
:10115000FFF7A2F8BDE820404FF000064FF000076F
:101160004FF000084FF0000B21F00701AC46ACE84F
:10117000C009ACE8C009ACE8C009ACE8C0098D46BC
:101180007047000010B500F005F8001D10BD00BF4D
:101190002520000000487047081900202DE9F04183
:1011A0001F46044603260168072A01F4006004DB99
:1011B00008B116A505E016A503E008B115A500E0E5
:1011C00015A521F010002060A069C01EA0610FB11C
:1011D000401EA0612046FFF786F84FB1D4E90121F7
:1011E00038469047206A401C2062C01C206206E0FE
:1011F000206AFAE7D4E9012115F8010B9047761E21
:10120000F8D22046FFF785F8BDE8F0814E414E0048
:101210006E616E00494E4600696E66002DE9F0472A
:10122000814616468AB0334878440DC88DE80D00D3
:1012300030487844801C03AC0DC884E80D0041F6AA
:101240009B300844372190FBF1F290FBF1F5A5F1BA
:10125000800501FB12041B3C02D56442012000E022
:101260000020DFF890A080460027FA44AAF1BE0AC9
:101270000DE0E00709D03246684607EB47010AEB6C
:10128000810100F013FB8DE8070064107F1C002C27
:10129000EFD1184F7F44AC3F18E0E80714D007EBBC
:1012A00004100DF1180A90E80E008AE80E00C068DC
:1012B000F04201D198190890324606A903A800F01F
:1012C000F5FA03AB83E807006D10641C002DE4D130
:1012D00032466946B8F1000F03A802D000F0D2FAF6
:1012E00001E000F0E3FAC9E90001C9F808200AB0FA
:1012F000BDE8F087A020000010B50446AFF30080E1
:101300002046BDE81040FEF7B2BF0000004870471D
:10131000E81800204FF0013C50F8042B51F8043B32
:101320009A4221D1A2EB0C03934313EACC1317D1B9
:1013300050F8042B51F8043B9A4215D1A2EB0C0350
:10134000934313EACC130BD150F8042B51F8043B10
:101350009A4209D1A2EB0C03934313EACC13DBD0DE
:101360004FF00000704700BFD01A01BAB1FA81F106
:1013700001F0180122FA01F0CB40C1F12001DBB2EB
:10138000C0B2C01A2CFA01F3D11A914311EAC31169
:10139000E6D1704701491820ABBEFEE726000200E7
:1013A00070475FEA400C08BF91F0000F4FEA8C23B2
:1013B0004FEAC12243EA51514FEA1C5018BF00F5D1
:1013C000F0404FEA300018BF41F000415FEA6C5C2A
:1013D00000F02980BCF1FF3F08BF40F0804070471B
:1013E000130C06BF12044FF0100C4FF0000C130E3C
:1013F00004BF12020CF1080C130F04BF12010CF110
:10140000040C930F04BF92000CF1020CD30F04BF25
:1014100052000CF1010C11464FF00002A0F11F0028
:10142000A0EB0C00704711F0004F08BF704731F07F
:1014300000413FF4D5AF0B0C06BF09044FF0100C70
:101440004FF0000C0B0E04BF09020CF1080C0B0F3F
:1014500004BF09010CF1040C8B0F04BF89000CF1CF
:10146000020CCB0F04BF49000CF1010CCCF120039E
:10147000A0EB0C0022FA03F302FA0CF241EA03019A
:1014800000F10100704720F07F4C80EA030023F058
:101490007F47ACEB070303F57C5300F0004003F1FA
:1014A000FF032DE980494FEA154B09B44FEA144375
:1014B00025EA0B4E24EA03480FF2042606EB132715
:1014C00049083E785FEA320203FB0667C7F500076A
:1014D00007FB06F64FEA54374FEAD64606F10206F6
:1014E00007FB066CCCF1005C4FEA1C472CEA074C6A
:1014F00007FB06F40CFB06F504EB15464FEA9616BF
:1015000034BF00204FF000404FEAD13706FB07FC04
:101510004FEA1C4C0CFB0BF7D21B03FB0CF761EBE7
:1015200007010CFB0EF7B0EB074072EB17420CFB08
:1015300008F734BFA2EB0742B2EB074261EB174159
:101540004FEA0C444FEA910706FB07FC4FEA1C4C9C
:101550000CFB0BF7B0EBC74072EB573203FB0CF7F9
:1015600034BFA2EBC742B2EBC74261EB57310CFB71
:101570000EF7B0EBC70072EB57720CFB08F734BFE5
:10158000A2EBC702B2EBC70261EB5771039F4FEAB0
:10159000816141EA921104EBCC044FEAD1374FEA62
:1015A000826206FB07FC42EA90124FEA80604FEA33
:1015B0001C4C0CFB0BF7D21B03FB0CF761EB070178
:1015C0000CFB0EF7B0EB074072EB17420CFB08F771
:1015D00034BFA2EB0742B2EB074261EB17414FEA7F
:1015E0008C554FEA910704EB9C2406FB07FC4FEA5D
:1015F0001C4C0CFB0BF7B0EBC74072EB573203FBF4
:101600000CF734BFA2EBC742B2EBC74261EB5731D4
:101610000CFB0EF7B0EBC70072EB57720CFB08F730
:1016200034BFA2EBC702B2EBC70261EB577115EBF7
:101630004C254FEA816141EA92114FEA82624FEAFA
:10164000D13742EA901206FB07FC44F100044FEA4E
:1016500080604FEA1C4C0CFB0BF7D21B03FB0CF712
:1016600061EB07010CFB0EF7B0EB074072EB174282
:101670000CFB08F734BFA2EB0742B2EB074261EB69
:10168000174115EB1C154FEA813141EA92414FEAAF
:10169000823242EA90424FEA80304FEA0C7644F1BF
:1016A000000448EA03434EEA0B484FF0000EB2EB49
:1016B000080C71EB030724BF624639464EEB0E0E51
:1016C0004FF0000B0018524149414BEB0B0BB2EBB2
:1016D000080C71EB03077BF1000B24BF624639460F
:1016E0004EEB0E0E4FF0000B0018524149414BEBF0
:1016F0000B0BB2EB080C71EB03077BF1000B24BF63
:10170000624639464EEB0E0E51EA020718BF46F00C
:10171000010616EB0E7655F1000254F1000103D5D7
:10172000BDE88901BDE80088BDE88901BDE8004841
:10173000B619524141EB0101A3F1010370478080CA
:101740007F7E7D7C7B7A797877767675747372711B
:1017500071706F6E6E6D6C6C6B6A6A6968686766D3
:1017600066656464636362616160605F5F5E5E5D65
:101770005D5C5C5B5B5A5A595958585757565655D9
:1017800055555454535352525251515050504F4F3B
:101790004F4E4E4D4D4D4C4C4C4B4B4B4A4A4A498B
:1017A00049494848484747474746464645454544CE
:1017B0004444444343434342424242414141002B5B
:1017C00026D4770021D01CB54FEA370703B44FF079
:1017D00010004FF010014FF000000FBCBDE81040AA
:1017E0000BF1010BBBF1010F08BF5FEA170722BF26
:1017F00012F1010211F101014FF0004143F1000328
:1018000000F0004043EA00007047F9D35708DAE7D8
:1018100046EA064613F1400F4FEA16461FDD13F164
:10182000200FDFBF16430A46002120335B42C8D099
:10183000C3F1200746EA064602FA07F74FEA1646C2
:1018400046EA0706C3F1200722FA03F201FA07F776
:1018500021FA03F14FF0000342EA0702B1E746EA3A
:10186000020646EA06464FEA164646EA0106BCBFAD
:1018700046EA0646360C4FF000034FF000024FF0E8
:1018800000019EE72DE9C048934630B491E8380046
:1018900007C831EA400C48BF34EA430C03D5FFF7D0
:1018A000F2FDFFF78CFFF0BCBDE800882DE9C048D1
:1018B000934630B491E8380007C810F0804F08BF55
:1018C00013F0804F03D100F005F8FFF778FFF0BC6C
:1018D000BDE8008820F07F4780EA030023F07F4CBA
:1018E00007EB0C03A3F57C5300F00040A3F1FE03CB
:1018F00092F0000F00F0B38095F0000F00F07780B9
:101900002DE901494FEA11404FEA144621EA004807
:1019100000FB06FC24EA064708FB06F607FB08F86E
:1019200000FB07F718EB06484CEB164C4FEA124B3E
:1019300018EB07484FEA15464CEB174022EA0B4ECE
:101940000BFB06FC25EA06470EFB06F607FB0EFE20
:101950000BFB07F71EEB064E4CEB164C4FF0000648
:101960001EEB074E4CEB174B18EB0B0840F1000039
:1019700018EB0E0B58EB000840F100008F1A4FF0E7
:1019800000013CBFC943661B14BFB5EB040C00212A
:101990003CBFC943F61B4FEA17444EEA8E0E27EAB6
:1019A00004454FEA1C4704FB07622CEA074C05FB81
:1019B00007F70CFB05F604FB0CFC16EB074642EBA5
:1019C000174216EB0C4642EB1C421BEB060658EB8B
:1019D0000202414146EA9E0601D5BDE80189B619D9
:1019E000524141EB0101A3F10103BDE801894FEA36
:1019F00014454FEA114724EA054621EA074C05FB46
:101A000007F406FB07F70CFB06F105FB0CFC11EBDA
:101A1000074144EB17444FEA124711EB0C4144EBEA
:101A20001C4422EA074C05FB07F206FB07F70CFBF8
:101A300006F605FB0CFC16EB074642EB174216EBCD
:101A40000C4642EB1C456A1854F1000148BF704730
:101A5000B619524141EB0101A3F10103704795F022
:101A6000000F37D04FEA11424FEA144721EA0246ED
:101A700024EA074C02FB07F106FB07F70CFB06F410
:101A800002FB0CFC14EB074441EB17414FEA1547EE
:101A900014EB0C4441EB1C4125EA074C02FB07F513
:101AA00006FB07F70CFB06F602FB0CFC16EB0746E1
:101AB00045EB174516EB0C4645EB1C42121951F14C
:101AC000000148BF7047B619524141EB0101A3F133
:101AD000010370474FEA14454FEA114724EA0546CF
:101AE00021EA074C05FB07F106FB07F70CFB06F2A2
:101AF0004FF0000605FB0CFC12EB074241EB1741CF
:101B000012EB0C4251EB1C4148BF7047921841EB5D
:101B10000101A3F1010370472DE9F04102460025C0
:101B20000026002000230024002791F803C00CF0B9
:101B30000F0591F803C00CF0100CBCF1000F03D09E
:101B400091F802C04CEA050591F800C0BCF1000F05
:101B500031D0146800202BE04FF0010C0CFA00F398
:101B6000B1F800C00CEA03069E4220D183004FF07A
:101B70000F0C0CFA03F7BC4305FA03FC4CEA04040F
:101B800091F803C0BCF1280F06D14FF0010C0CFAFC
:101B900000FCC2F814C00AE091F803C0BCF1480F81
:101BA00005D14FF0010C0CFA00FCC2F810C0401C2B
:101BB0000828D1D31460B1F800C0BCF1FF0F34DDA8
:101BC000546800202EE000F1080C4FF0010808FADC
:101BD0000CF3B1F800C00CEA03069E4221D1830049
:101BE0004FF00F0C0CFA03F7BC4305FA03FC4CEA68
:101BF000040491F803C0BCF1280F05D100F1080CD2
:101C000008FA0CF8C2F8148091F803C0BCF1480F30
:101C100007D100F1080C4FF0010808FA0CF8C2F8DF
:101C20001080401C0828CED35460BDE8F08100002D
:101C3000F0B50A46002300240021002500F00046EC
:101C4000B6F1004F02D11D4EF16901E01B4E7168E3
:101C5000C0F3034583B200F44016B6F5401F08D127
:101C600021F07061154E766826F07066134F7E6025
:101C700012E000F48016B6F5801F06D1032606FA9E
:101C800005F4A14341F0706106E0460D360103FA08
:101C900006F6B14341F0706122B1460D360103FAF8
:101CA00006F6314300F00046B6F1004F02D1034E74
:101CB000F16101E0014E7160F0BD000000000140E3
:101CC0000246002093680B400BB1012000E0002089
:101CD000704741617047016170470AB1016100E0DE
:101CE0004161704770B5002100230F22C47804B30E
:101CF000154C246804F4E064C4F5E064210AC1F1E1
:101D00000403CA40447804FA03F184781440214360
:101D100009010E4C0678A155047804F01F05012432
:101D2000AC4005786D11AD0005F1E025C5F8004126
:101D300009E0047804F01F050124AC40044D067846
:101D4000761145F8264070BD0CED00E000E400E09F
:101D500080E100E029B1064A92690243044B9A618E
:101D600004E0034A92698243014B9A617047000084
:101D70000010024021B1028842F40052028004E0C7
:101D800002884DF6FF731A400280704721B1028825
:101D900042F04002028004E002884FF6BF731A400E
:101DA000028070470246002013890B400BB10120CE
:101DB00000E00020704701468889704781817047A4
:101DC00010B50022028802F441520B884C8823434C
:101DD0008C882343CC8823430C8923434C89234399
:101DE0008C892343CC8923431A430280838B4FF28F
:101DF000FF74234083830B8A038210BD21B1828844
:101E000042F00402828004E082884FF6FB731A409D
:101E10008280704710B500F001F810BD0CB50020AD
:101E2000019000903348006840F4803031490860E8
:101E300000BF3048006800F4003000900198401C5A
:101E40000190009818B90198B0F5A06FF1D1294818
:101E5000006800F4003010B10120009001E0002083
:101E600000900098012843D12348006840F01000FA
:101E7000214908600846006820F003000860084611
:101E8000006840F0020008601A484068194948603C
:101E90000846406848600846406840F480604860F2
:101EA0000846406820F47C1048600846406840F4CA
:101EB000E81048600846006840F08070086000BF85
:101EC0000C48006800F000700028F9D0094840680C
:101ED00020F00300074948600846406840F00200CF
:101EE000486000BF0348406800F00C000828F9D1A2
:101EF0000CBD0000001002400020024002480068B3
:101F0000401C0149086070471400002010B51348B8
:101F1000006840F001001149086008464068104917
:101F200008400E494860084600680E4908400B49C1
:101F300008600846006820F4802008600846406871
:101F400020F4FE0048604FF41F008860FFF762FF36
:101F50004FF000600449086010BD0000001002400E
:101F60000000FFF8FFFFF6FE08ED00E010B540F2BC
:101F700025510A4800F045F878B10948007838B191
:101F8000064800F068F8C4B2064801682046884751
:101F900040F22551014800F025F810BD00380140FD
:101FA0003C0000203400002010B540F225510A48C2
:101FB00000F027F878B10948407838B1064800F0B9
:101FC0004AF8C4B2064841682046884740F2255185
:101FD000014800F007F810BD004800403C00002018
:101FE0003400002010B50022002340F66A14A142FC
:101FF00000D100BF0A1201249440A3B2DC43048044
:1020000010BD70B50246002400230025002040F6D4
:102010006A16B14200D100BFC1F3421501F01F039F
:10202000012606FA03F3012D02D19689334006E01A
:10203000022D02D1168A334001E0968A33400C12F9
:10204000012606FA04F41688344013B10CB10120BD
:1020500000E0002070BD01468888C0F3080070478A
:10206000490050EAC12018BF04204A0D18BF40F0B3
:10207000010040F2FF72B2EB515F08BF40F0020076
:10208000012808BF0520704730380A2801D20120F6
:10209000704700207047000070B50446084800787B
:1020A00008B901F029F80748056806E00548006806
:1020B000854202D003480568641E002CF6D170BD2D
:1020C000180000201400002001480068704700003C
:1020D000140000201CB501F00FF84FF4FC634FF61C
:1020E000FF720021084600F041FBFFF7EDFF0446B8
:1020F00001211D20FFF72EFE01217D48FFF798FDED
:1021000010208DF8070003208DF80600ADF80400BC
:1021100001A97848FFF700FD4FF40040ADF8040036
:1021200001A97448FFF7F8FC4FF48050ADF80400A3
:1021300001A97048FFF7F0FC0220ADF8040001A9E6
:102140006D48FFF7E9FC2020ADF8040001A96B48B9
:10215000FFF7E2FC1020ADF8040001A96748FFF783
:10216000DBFC4FF47F40ADF8040028208DF8070019
:1021700001A96148FFF7D0FC0120ADF8040001A9D6
:102180005D48FFF7C9FC0122D1035A48FFF7A5FDBE
:10219000ADE0FFF799FFA042FAD0FFF795FF0446A4
:1021A0000A20B4FBF0F100FB11400728F0D100F049
:1021B00069F94FF480715048FFF782FD05462B46C0
:1021C0004FA20021084600F035FB4FF4004149487A
:1021D000FFF776FD05464FF400714748FFF770FDA5
:1021E000064633464AA201210020009500F022FB5A
:1021F0004FF480513F48FFF763FD05464FF480617F
:102200003D48FFF75DFD0646334645A2022100200A
:10221000009500F00FFB02213748FFF751FD0546FE
:102220004FF400613448FFF74BFD0646334641A2A8
:1022300003210020009500F0FDFA4FF480512E4854
:10224000FFF73EFD05462B463FA20421002000F08B
:10225000F1FA01212848FFF733FD05464FF40051FC
:102260002548FFF72DFD064633463BA205210020F9
:10227000009500F0DFFA20212048FFF721FD0546F8
:102280004FF480411C48FFF71BFD0646334637A23A
:1022900006210020009500F0CDFA10211748FFF725
:1022A0000FFD05464FF400411348FFF709FD0646B0
:1022B000334633A207210020009500F0BBFA01212C
:1022C0000C48FFF7FDFC05462B4631A208210020F3
:1022D00000F0B0FA02210748FFF7F2FC05462B4652
:1022E0002FA20921002000F0A5FA00F0D5FB50E74D
:1022F0000002300000080140000C014000100140C5
:1023000020202020443020256458203356330000FC
:102310002020202044312025642564204F450000E2
:10232000202020204432202564256420525253541A
:102330000000000020202020443320256425642054
:1023400052434C4B00000000202020204434202524
:102350006458204E430000002020202044352025D2
:10236000642564205653594E43000000202020204D
:102370004436202564256420575253540000000041
:1023800020202020443720256425642057454E0016
:1023900020202053434C20256458204852454600B5
:1023A0002020205344412025645820474E440000FB
:1023B00030B5024602EB82032C4C04EB43035B5C1A
:1023C00002EB82042A4D05EB4404645CA3421FD156
:1023D00002EB8203274C04EB830333F8113002EB4A
:1023E0008204254D05EB840434F81140A3420FD13B
:1023F00002EB8203214C04EB830333F8113002EB30
:1024000082041F4D05EB840434F81140A34201D02F
:10241000012300E00023184602EB8203144C04EB76
:1024200043035B5C02EB8204104D05EB44046354F0
:1024300002EB8203104C04EB830333F8113002EB00
:1024400082040C4D05EB840424F8113002EB820366
:102450000B4C04EB830333F8113002EB8204074D7D
:1024600005EB840424F8113030BD00001811002061
:102470005010002070130020E01100209016002062
:102480000015002010B5002404E0204600F006F8F6
:10249000601CC4B20A2CF8DB10BD000010B5014668
:1024A00000201AE0202200EB80030D4C04EB4303D4
:1024B0005A540C4A128800EB80030B4C04EB830344
:1024C00023F81120094A128800EB8003084C04EB22
:1024D000830323F81120421CD0B21428E2DB10BD84
:1024E0005010002042100020E01100204010002079
:1024F0000015002010B5012000F0AEFD0A20FFF706
:10250000CBFD112000F0A8FD7820FFF7C5FDB1201C
:1025100000F0A2FD012000F0C7FD2C2000F0C4FD5A
:102520002D2000F0C1FDB22000F096FD012000F04A
:10253000BBFD2C2000F0B8FD2D2000F0B5FDB32030
:1025400000F08AFD012000F0AFFD2C2000F0ACFD72
:102550002D2000F0A9FD012000F0A6FD2C2000F0A8
:10256000A3FD2D2000F0A0FDB42000F075FD072094
:1025700000F09AFDC02000F06FFDA22000F094FD55
:10258000022000F091FD842000F08EFDC12000F0BB
:1025900063FDC52000F088FDC22000F05DFD0A202B
:1025A00000F082FD002000F07FFDC32000F054FD0C
:1025B0008A2000F079FD2A2000F076FDC42000F08A
:1025C0004BFD8A2000F070FDEE2000F06DFDC5206F
:1025D00000F042FD0E2000F067FD362000F03CFDCB
:1025E000C82000F061FDE02000F036FD022000F080
:1025F0005BFD1C2000F058FD072000F055FD122067
:1026000000F052FD372000F04FFD322000F04CFD6D
:10261000292000F049FD2D2000F046FD292000F082
:1026200043FD252000F040FD2B2000F03DFD39202A
:1026300000F03AFD002000F037FD012000F034FDED
:10264000032000F031FD102000F02EFDE12000F00D
:1026500003FD032000F028FD1D2000F025FD0720CC
:1026600000F022FD062000F01FFD2E2000F01CFDD2
:102670002C2000F019FD292000F016FD2D2000F07F
:1026800013FD2E2000F010FD2E2000F00DFD372050
:1026900000F00AFD3F2000F007FD002000F004FDDF
:1026A000002000F001FD022000F0FEFC102000F0F0
:1026B000FBFC2A2000F0D0FC002000F0F5FC0020FC
:1026C00000F0F2FC002000F0EFFC7F2000F0ECFCBA
:1026D0002B2000F0C1FC002000F0E6FC002000F000
:1026E000E3FC002000F0E0FC9F2000F0DDFC3A203D
:1026F00000F0B2FC052000F0D7FC292000F0ACFC73
:102700000A20FFF7C9FC10BD70B504462A2000F06E
:10271000A3FC002000F0C8FC022000F0C5FC002053
:1027200000F0C2FC812000F0BFFC2B2000F094FCE4
:10273000002000F0B9FC012000F0B6FC002000F001
:10274000B3FCA02000F0B0FC2C2000F085FC00259C
:1027500007E0201200F0A8FCE0B200F0A5FC681C25
:1027600085B2B5F5A04FF4DB70BD00002DE9F04750
:1027700080460E461746994600F02AF900F0D6F832
:10278000FFF7B8FE2C2000F067FC304600F0E0F8C0
:10279000384600F017F9484600F00EF93046FFF7CA
:1027A000B3FF1D4880F80080002431E000252BE0B5
:1027B000202004EB8401194A02EB4101485504EB47
:1027C0008400174901EB800020F8157004EB8400A9
:1027D000144901EB800020F81560202004EB8401EF
:1027E000114A02EB4101485504EB84000F4901EB0B
:1027F000800020F8157004EB84000D4901EB800087
:1028000020F81560681CC5B20A2DD1DB601CC4B26B
:10281000142CCBDBBDE8F0874610002050100020C0
:10282000E011002000150020181100207013002076
:10283000901600200FB4F0B5C1B005460E46002733
:10284000002449A8009001A8009A4899FDF736FD98
:102850000020009001AC55E020785B2806D114F8E8
:10286000010C5C2802D00127641C4AE020785D2816
:1028700006D114F8010C5C2802D00027641C40E04B
:1028800020780D2802D020780A2801D1641C38E075
:10289000142D01DC0A2E01DD641C33E020785C2855
:1028A00006D160785B2802D060785D2800D1641C76
:1028B00014F8010B05EB8501164A02EB410188551E
:1028C00017B11548008801E01448008805EB850120
:1028D000134A02EB810121F816001248008805EB2B
:1028E0008501114A02EB810121F81600142D03DB4A
:1028F0000025701CC6B201E0681CC5B20A2E00DBC0
:10290000002600BF20780028A6D141B0F0BC5DF8B9
:1029100014FB000050100020441000204210002042
:10292000E0110020401000200015002010B5042107
:102930000648FFF7CEF96420FFF7AEFB04210348F9
:10294000FFF7C9F96420FFF7A7FB10BD000801409D
:102950000149088070470000401000202DE9F04137
:1029600004460D4616461F462A2000F075FB00203F
:1029700000F09AFBA11CC8B200F096FB002000F00A
:1029800093FBB11CC8B200F08FFB2B2000F064FB5E
:10299000002000F089FB691CC8B200F085FB002014
:1029A00000F082FB791CC8B200F07EFB2C2000F006
:1029B00053FBBDE8F081000001490880704700002A
:1029C0004410002001490880704700004210002098
:1029D00000B587B001210420FFF7BCF901210846AA
:1029E000FFF7B8F901210803FFF7B4F90C20ADF89F
:1029F000040010208DF8070001208DF8060001A9C1
:102A00002348FFF789F8A020ADF8040018208DF8BE
:102A1000070003208DF8060001A91D48FFF77CF888
:102A20001020ADF804008DF8070003208DF8060093
:102A300001A91748FFF770F80020ADF808004FF41F
:102A40008270ADF80A000020ADF80C000220ADF84D
:102A50000E000120ADF810004002ADF81200082071
:102A6000ADF814000020ADF8160002A90948FFF7E0
:102A7000A7F901210748FFF789F900210548FFF769
:102A800079F900210348FFF7B9F907B000BD00004C
:102A900000080140003001402DE9F05F0026FE48AB
:102AA000007808B9BDE8F09F002468E0002562E0E6
:102AB00005EB8500F94901EB800030F8140000F4C3
:102AC000004008B1402000E0002005EB8501F34AFA
:102AD00002EB810131F8141001F4806109B1202169
:102AE00000E00021084305EB8501EC4A02EB81017F
:102AF00011F8141001F0100109B1102100E00021BB
:102B0000084305EB8501E64A02EB4101085505EB58
:102B10008500E44901EB800030F8140000F4004027
:102B200008B1042000E0002005EB8501DC4A02EB3F
:102B30004101095D084305EB8501DA4A02EB810199
:102B400031F8141001F4806109B1022100E0002184
:102B5000084305EB8501D34A02EB810111F81410FB
:102B6000C1F30011084305EB8501CD4A02EB410199
:102B70000855681C05B2102D9ADB601C04B20A2CA3
:102B800094DBC948007830B101287CD002287BD082
:102B900003287AD1BEE1002488E0002581E0E1B27B
:102BA000E8B2FFF705FC002879D0012605E0A81956
:102BB000102800DB0BE0701C06B2A819102806DAFA
:102BC000E1B2AA19D0B2FFF7F3FB0028EFD100BFA2
:102BD00004F1010C4FF0010ECEEB0C1C0CF0FF03C6
:102BE00005EB060CCEEBCC0C0CF0FF024FEA047C9C
:102BF0004FEA1C614FEAC56C4FEA1C60FFF7AEFE5E
:102C0000A2464FF0000844E0002736E03846F917A6
:102C100007EB517105EBE1010FFA81F9F91707EBA9
:102C20005171C910A7EBC1028021114109EB890242
:102C30009E4B03EB420212F80A2008EB02129C4B57
:102C40009A5C114039B109EB8901944A02EB810188
:102C500031F81A1006E009EB8901924A02EB810172
:102C600031F81A108B464FEA2B2000F01DFA0BF0BA
:102C7000FF0000F019FA781C07B2B7EBC60FC5DBEE
:102C800008F1010003E015E0A3E0D2E107E00FFA4C
:102C900080F8B8F1100FB7DB701E284405B2681C2D
:102CA00005B2102DFFF67BAF601C04B20A2CFFF6B4
:102CB00074AFBEE1002588E0072481E0E1B2E8B20C
:102CC000FFF776FB002879D0012604E0A01B00D591
:102CD0000AE0701C06B2A01B06D4A21BD1B2E8B257
:102CE000FFF766FB0028F1D100BF05F1010C4FF0A2
:102CF000010ECEEBCC0C0CF0FF03C4F1070CB44476
:102D0000CEEB0C1C0CF0FF024FEAC56C4FEA1C61C5
:102D1000C4F1070C4FEA0C7C4FEA1C60FFF71EFE63
:102D2000A946002745E04FF000083DE040464FEA45
:102D3000E87108EB1171A4EB21110FFA81FA4FEA47
:102D4000E87108EB11710911A8EB011209EB890177
:102D5000564B03EB410111F80A10102303EB01114C
:102D6000891A491E524A515C80223A41114039B1B8
:102D700009EB8901494A02EB810131F81A1006E09A
:102D800009EB8901474A02EB810131F81A108B46A1
:102D90004FEA2B2000F088F90BF0FF0000F084F9D7
:102DA00008F101000FFA80F8B8EB061FBEDB781CB3
:102DB00007B2082FB7DB701E201A04B2601E04B2DF
:102DC000002CBFF67BAF681C05B2142DFFF674AF64
:102DD0002FE109249AE00F2593E0E1B2E8B2FFF772
:102DE000E7FA002866D0012604E0A81B00D50AE017
:102DF000701C06B2A81B06D4E1B2AA1BD0B2FFF722
:102E0000D7FA0028F1D100BFC4F10A0C4FF0010E2F
:102E1000CEEB0C1C0CF0FF03C5F10F0CB444CEEB51
:102E2000CC0C0CF0FF02C4F1090C4FEA0C7C4FEA09
:102E30001C61C5F10F0C4FEACC6C4FEA1C60FFF728
:102E40008DFDA2464FF0000853E000274AE03846C7
:102E5000F91707EB5171A5EBE1010FFA81F9C8F100
:102E60000F0109EB8902114B03EB420212F80A2011
:102E700001EB02110E4A515CFA1707EB5272D210A5
:102E8000A7EBC202C2F10702802313411940B9B176
:102E900009EB8901014A0EE047100020E0110020F3
:102EA000201800200015002046100020501000209F
:102EB0004000002023E002EB810131F81A1006E007
:102EC00009EB89015F4A02EB810131F81A108B4648
:102ED0004FEA2B2000F0E8F80BF0FF0000F0E4F8D8
:102EE000781C07B2B7EBC60FB1DB08F101000FFA8F
:102EF00080F8B8F1100FA8DB701E281A05B2681E02
:102F000005B2002DBFF669AF601E04B2002CBFF6FB
:102F100062AF8EE0132588E0002481E0E1B2E8B2E0
:102F2000FFF746FA78B3012605E0A019082800DB70
:102F30000BE0701C06B2A019082806DAA219D1B25B
:102F4000E8B2FFF735FA0028EFD100BFC5F1140C45
:102F50004FF0010ECEEBCC0C0CF0FF0304EB060C93
:102F6000CEEB0C1C0CF0FF02C5F1130C4FEACC6C3D
:102F70004FEA1C614FEA047C4FEA1C60FFF7EEFC4D
:102F8000A946002745E049E04FF000083CE04046F4
:102F90004FEAE87108EB117104EB21110FFA81FA85
:102FA0004FEAE87108EB11710911A8EB011209EB66
:102FB0008901254B03EB410111F80A1002EB0111C5
:102FC000224A515CC7F1070280231341194039B1ED
:102FD00009EB89011E4A02EB810131F81A1006E063
:102FE00009EB8901174A02EB810131F81A108B466F
:102FF0004FEA2B2000F058F80BF0FF0000F054F8D7
:1030000008F101000FFA80F8B8EB061FBFDB781C4F
:1030100007B2082FB8DB701E204404B2601C04B253
:10302000082CFFF67BAF681E05B2002DBFF674AF0B
:1030300000BF00BF0748006810B10648006880471D
:1030400000BF2FE500150020501000204000002098
:10305000E01100204C10002010B50446102110484B
:10306000FEF737FE08210E48FEF733FE00BF0221AF
:103070000C48FEF797FE0028F9D021460948FEF7D4
:103080009DFE00BF01210748FEF78CFE0028F9D005
:103090000448FEF790FE10210148FEF71CFE10BD0B
:1030A000000801400030014010B5044610211048CE
:1030B000FEF70FFE08210E48FEF70DFE00BF0221AD
:1030C0000C48FEF76FFE0028F9D021460948FEF7AC
:1030D00075FE00BF01210748FEF764FE0028F9D005
:1030E0000448FEF768FE10210148FEF7F4FD10BD0C
:1030F000000801400030014038B500208DF8010083
:103100008DF8020001208DF80300FF208DF80000EB
:103110006846FEF7E7FD174800684FF47A72B0FB87
:10312000F2F1B1F1807F00D31DE021F07F40401E1D
:103130004FF0E022506150170F22002807DA1307E2
:103140001D0E0D4B00F00F04241F1D5503E0130747
:103150001C0E0A4B1C5400BF00204FF0E02290616F
:103160000720106100BF01200549087000200549B3
:10317000086038BD0000002018ED00E000E400E029
:10318000180000201400002010B500290AD008788B
:10319000002807D005487844FEF7BCF8002801D085
:1031A000002010BD0248784410BD00006E010000F0
:1031B0006601000010B500290AD00878002807D061
:1031C00005487844FEF7A6F8002801D0002010BD7D
:1031D0000248784410BD00005E0100005601000066
:1031E000FDF7A9BCFDF7DEBD0000000000000000F7
:1031F000303132333435363738394142434445462D
:103200004030580030313233343536373839616226
:103210006364656640307800040000080000000028
:103220000000000200010000103031323334353626
:1032300037383961626364656678700030313233E3
:1032400034353637383941424344454658500000FA
:1032500002400000000000A0000000000540000047
:10326000000000C8000000000C4000000000409C6E
:1032700000000000194000000020BCBE000000005B
:1032800034400000BFC91B8E00000004B5400000A0
:10329000504BCFD06607E2CF010000006C41000028
:1032A0003E8251AADFEEA73401000000D94200009F
:1032B000DCB5A0E23A301F97FFFFFFFFB4450000E6
:1032C000FD25A0C8E9A3C14FFFFFFFFFFF3F00009E
:1032D0000000008000000000FF3F000000000080B0
:1032E00000000000303400080000002050100000F2
:1032F00028010008D83A000850100020F80E0000FD
:103300008C0100081C00000043000000F8FFFFFFD4
:103310000C0000000E0000000F0000002E00000056
:103320001001000043000000F8FFFFFF0040404094
:103330004040404040404141414141404040404088
:103340004040404040404040404040404005020234
:1033500002020202020202020202020202202020F3
:10336000202020202020200202020202020290904F
:10337000909090901010101010101010101010104D
:1033800010101010101010100202020202028888A1
:1033900088888888080808080808080808080808AD
:1033A0000808080808080808020202024000000095
:1033B000000000000000000000000000000000000D
:1033C00000000000000000000000000000000000FD
:1033D00000000000000000000000000000000000ED
:1033E00000000000000000000000000000000000DD
:1033F00000000000000000000000000000000000CD
:1034000000000000000000000000000000000000BC
:1034100000000000000000000000000000000000AC
:10342000000000000000000000000000000000009C
:10343000500600A24A0400016009010203040607C5
:10344000080910100B00380140004800400008082F
:1034500083100108011B01500B7E81A58181BD995C
:1034600081817E105009FFDBFFFFC3E7FFFF1010D3
:103470000500006CFE0160047C381067A004103861
:103480007C0F700A183C3CE7E7E718183C10127EE6
:103490003D8110412342185E32FF0123E7C36121C1
:1034A0000A316180073C664242663C205007C3995E
:1034B000BDBD99C32010071E0E1A3278CC01427888
:1034C0008E133C6601133C1861419E10053F333F4B
:1034D0003001400470F0E06210057F637F630150AB
:1034E0000567E7E6C07D500718DB3CE73CDB303082
:1034F0000C80C0E0F0F8FEF8F0E0C080CD700C0267
:10350000060E1E3EFE3E1E0E0602BF60051818186F
:103510007EB143006601110851602006DBDBDB7BD6
:103520001B01353F940D7CC660386CC6C66C380CE8
:10353000C67C562533D150A27E602101619F3101A6
:103540008171111380040CFE0C0EA4080000306081
:10355000FE6030B49005C0C0C0FE208406286CFE1A
:103560006C286E80071038387C7CFE2115BD877C66
:1035700038BFD90015BF223C8D5520155DCA2421C6
:10358000126C5E3104454D640B7CC6C2C07C0606DD
:1035900086C67C825809C2C60C183060C68685145F
:1035A000066C6C3876DCB04276BCB00430306070AB
:1035B000112C310153180CDD33180C018218E2A0D4
:1035C00006663CFF3C66A385EE9114913103110021
:1035D000FED87550230206A055F011A02405C6C6DA
:1035E000D6D6B2599C573878824D1003437CC62FEB
:1035F00073C6FE106406063C060606DF10070C1CA8
:103600003C6CCCFEB1561E5E158D92FC20133860CA
:103610001012C601511012FE4041F46160111B915D
:1036200020210C127E60B30C78BA91F15110652004
:1036300031CE15368E06C3033103653E311C21247D
:103640007170960CE031715006DEDEDEDCC0B02613
:10365000101122FE91454B1AFCF12A7CF56EFC708C
:103660000312C2E25FC0C2A1034C0400F86C120353
:10367000576CF800B00A6662687868606266FE108F
:1036800090046060F0404006DEC6C6663A40251BE6
:10369000316F51705E3C01036D40043A1E0E8DF097
:1036A0000312E66B1378787542E68033F06001719F
:1036B000709006C6EEFEFED6508007C6E6F6FEDE29
:1036C000CE10356C959031E08260A051207406D602
:1036D000DE7C0C0E0021E476E6B0700560380C0646
:1036E00040B0047E7E5AB0D2C660510E6E6C210589
:1036F000315D6006D6D6FEEE6C201E6C8E03637CB8
:103700006CA04DCF0481502C04FEC6864F036AC2C4
:10371000804E3C2F036F303060051DC2047C047066
:10372000381CB0044E3C3F0364040C0C3CCE0D1717
:10373000EB054EFF6F03FD03067C04780C7CB003A1
:10374000240500E060606E152579601B7CC6E46985
:10375000E0121C6A836CCC30395292FE202C053664
:10376000323078920579D02F0076BF053404CC7CB6
:103770000CD3116084046C7666601D7B04AA38004B
:1037800030060606000E06013E6614061130490199
:103790005590DA3830191317ECFE6182D6F85EDCEA
:1037A000B30581A09D700371207A7C0361A06DD365
:1037B000038804DC7666C05DE4057DDF0524051022
:1037C0003030FC8F73361C7031DF95105901911029
:1037D0002901826C20A4046C3838A849336C047E1B
:1037E000060C53032ECC50055D40061E0E9B042E86
:1037F000703006BE0E30067D4006211C212497182D
:1038000070D29F76DC0A053DE203614F1DB10432A0
:103810008201811023D6AA028110A007868A8ADA43
:10382000F2B2206005DEFAF6BA10CACC301D8A0466
:10383000B1101E385805B950894031A219A1C930BC
:10384000CAC6402150B120BB6600201E181A06A12E
:10385000102180A1108EC6D104518F2DE1047DE08E
:10386000041D58074DB1047D400429404C073636ED
:103870007ED8D86E50081A3EDD26FED266CE3DC9EF
:1038800040CAC65041B08110B8043078CC1021D065
:10389000B92096C6F01D10037EC6A1044500CFC610
:1038A00000B0042D7107453E4DA0073C05386C64FF
:1038B0006003055EE6A0054D0D096A7E101C08F840
:1038C000CCCCF8C4CCDEA1034DD0052F0E1B5D0877
:1038D0001D82084AD8202D1806A5B02D7807B5609E
:1038E0001120A1D02110B1C0195B9D6003110E7D84
:1038F00071055DF005AC046C6C3E8F062D10089EC2
:10390000001B091D08071D1308AEC090033D4407A6
:10391000AEC03E092D01045DCE061C05E062666C5A
:103920000F031EDC1605823E10400566CE9A3F232B
:103930003DBB083DC5087D080B9006366CD86C363B
:103940004F110E4F6CD85B09C3114402C355AA0234
:10395000C3DD770202141801D2F80E71104236014D
:1039600052F6086186B2FE10E13073F60630E101CE
:10397000550FC1207FF606CD0351709EFE17093109
:1039800090DDFA05C1B0B00418181F30EC04181807
:10399000FF2A06E130CD7404E300FF40D12ED61F8C
:1039A00010B237C0BC0437303F620AC33F3020C377
:1039B000F70090D004FF00F740B6372082FF905107
:1039C00040713051DEC120E3363660E2FFE0D59031
:1039D000B63F60861F403D800BF61F20D23F40C29D
:1039E000FF90D530F618B07540D2FF01AE00470DFC
:1039F0001111D2F001D20F01C1377D1E065C05D82E
:103A0000D8D8DC90042D5C0D1FD8CCA5086ECC80D6
:103A1000082DEE07BD91032D000C4E6C000C2DA05F
:103A2000081D610A9DA0062D330E114F8FD8D88036
:103A3000066E6660074D820DAF76DCB0066F7E18AD
:103A4000C20D8D900B9EFE30073DAD0621715EEEDE
:103A5000100A1D210C3E3E250981701D830D8DF13C
:103A60000A1303061053F37E6D2C06001C306060B1
:103A7000E009DC04301C00010A9D2D0CAEFE330C65
:103A80005D5F0C6DF00E5D3F0B71105D6F0B612083
:103A90000C04120E1B1B1204A5011E18920BCE184B
:103AA0008E077D91073D0F050D19AD0C61426DCD5F
:103AB0000D3E0F0F0B4005EC6C6C3CD0AE6C570408
:103AC0003D3C0FCC050C18327ED20F41010D1AF58A
:083AD0000F6E0114100000004C
:04000005080000ED02
:00000001FF
